:020000040000FA
:060000000A128A110C280F
:10000800FE00030EF0000A08F1000A128A113529D1
:100018000A128A110F28F701F801F90183010A125F
:100028008A116C281A30F600F830F500F50B1A28FA
:10003800F60B1A28000030300A128A11E1200A1241
:100048008A110730F6007D30F500F50B2928F60BEC
:10005800292830300A128A11E1200A128A11C73081
:10006800F5003628F50B352839283A2830300A1299
:100078008A11E1200A128A11C730F5004328F50BCE
:1000880042284628472838300A128A11E1200A12E5
:100098008A1110300A128A11E1200A128A110130DD
:1000A8000A128A11E1200A128A1106300A128A11EC
:1000B800E1200A128A110C300A128A11E1200A1270
:1000C8008A1180300A128A11E1200A128A11080066
:1000D8000A128A1123210A128A110A128A11162079
:1000E8000A128A110D300A128A118C200A128A11FA
:1000F800C0300A128A11E1200A128A1101300A124C
:100108008A118C200A128A1188280A128A110C284E
:10011800F6009E28760884000A128A11AB200A127B
:100128008A110A128A11F7200A128A110130F50081
:100138007508F607760884000A128A11AB200A129D
:100148008A11003A031DA928AA288E280800003021
:100158008A000408840A820700344534533454342E
:10016800413420344D3449344534523444344134D4
:100178000034503452344F34423441344E344434D1
:100188004F340034831203130710871407110A121F
:100198008A110D210A128A11831203130715851F6C
:1001A800D628D728E02807110A128A110D210A1229
:1001B8008A118312031307150800F4000A128A1122
:1001C800C6200A128A1174088312031385000710C7
:1001D800871007150A128A110D210A128A11831233
:1001E800031307110800F4000A128A11C6200A1224
:1001F8008A117408831203138500071487100715E2
:100208000A128A110D210A128A1183120313071187
:100218000800F201F3010130F2070318F30A003075
:10022800F3077308803AFF0080307F02031D1E2900
:1002380032307202031C212922290F290800831653
:1002480003138501FF308600870188018316031791
:10025800880189160914831203138501870188010F
:10026800080071088A00700E8300FE0E7E0E0900D9
:04400E00D4E0FFFFFC
:00000001FF
