:020000040000FA
:060000000A128A110C280F
:10000800FE00030EF1000A08F2000A168A15BB2C3E
:100018000A128A110F28FA0183120313EC018313C1
:10002800CF308400E1300A168A1591210A128A110C
:1000380083010A128A15682883160313BF00A930A2
:10004800AD002D08B600732F25304A0603192D2858
:100058002E283A284A08AD003F0884002D0883134B
:1000680080000130AD002D08BF07732FB701B8011C
:10007800280884000A168A150A200A128A112E3ABC
:10008800031D472848288D2838170130AD002D0852
:10009800A807C401C5017C280A30F3000030F40029
:1000A800831603134508F6004408F5000A168A1556
:1000B80022220A128A11740883160313C5007308D2
:1000C800C400280884000A168A150A200A128A1110
:1000D800D03EAD00FF3003180030AE002D08C40735
:1000E8000318C50A2E08C5070130AD002D08A8075A
:1000F800280884000A168A150A200A128A110A1684
:100108008A15C2210A128A1103188B288C285028B4
:100118009328C401C501381693283815AF28013033
:1001280083160313A807FF30280784000A168A15C8
:100138000A200A128A11CA00AD00AE012E08003A40
:100148000319A728732F2D08003A0319852F663A3B
:1001580003199128732F00303705AD000730380593
:10016800AE002D082E040319BA28BB282E2F381EDE
:10017800BE28BF28C3280630C4000030C500360892
:10018800840083130008C600840A0008C700840A94
:100198000008C800840A0008C9000430AD002D0812
:1001A800B607490883120313A300831603134808EC
:1001B80083120313A2008316031347088312031341
:1001C800A10083160313460883120313A00000300E
:1001D800A7000030A6000030A5000030A4000A16D1
:1001E8008A15A0260A128A110318FB28FC28192947
:1001F800831603134908F6004808F5004708F40079
:100208004608F3000A168A1599210A128A117608F7
:1002180083160313C9007508C8007408C70073085B
:10022800C6000330B7040030B80483160313BD01B9
:10023800BE01490883120313A30083160313480859
:1002480083120313A20083160313470883120313B0
:10025800A10083160313460883120313A00000307D
:10026800A7000030A6000030A5000030A4000A1640
:100278008A1516230A128A11031843294429602A69
:10028800031083160313480D490D823EBD00FF304D
:1002980003180030BE00FF30BD070318BE0AFF3048
:1002A800BE070330F3000030F4003E08F6003D08B6
:1002B800F5000A168A1522220A128A117408831672
:1002C8000313BE007308BD000A3083120313A00095
:1002D8000030A100831603133E0883120313A30002
:1002E800831603133D0883120313A2000A168A1506
:1002F80022250A128A118312031321088316031375
:10030800BE0083120313200883160313BD00BE1F0B
:100318008E298F299529FF30BD070318BE0AFF30A3
:10032800BE073D03FF3A0A128A159D240A128A1154
:1003380083120313470883160313C300831203139E
:10034800460883160313C200831203134508831655
:100358000313C10083120313440883160313C00058
:10036800490883120313AD00831603134808831248
:100378000313AC0083160313470883120313AB005F
:1003880083160313460883120313AA008316031364
:10039800430883120313B100831603134208831220
:1003A8000313B00083160313410883120313AF002D
:1003B80083160313400883120313AE000A128A152A
:1003C8003C210A128A11831203132D088316031382
:1003D800C300831203132C0883160313C20083126D
:1003E80003132B0883160313C100831203132A086F
:1003F80083160313C000430883120313A300831654
:100408000313420883120313A2008316031341083F
:1004180083120313A10083160313400883120313E6
:10042800A0003F30A7008030A6000030A5000030B3
:10043800A4000A168A15A0260A128A110318252A6A
:10044800262A2F2AFF3083160313BD070318BE0A76
:10045800FF30BE07602A8316031343088312031371
:10046800A30083160313420883120313A200831602
:100478000313410883120313A100831603134008D2
:1004880083120313A0004130A7002030A6000030DB
:10049800A5000030A4000A168A15A0260A128A119F
:1004A800031C572A582A602A013083160313BD07F4
:1004B8000318BE0A0030BE07831603134508803AA6
:1004C800FF0080307F02031D6B2A0D3044020318A1
:1004D8006E2A6F2AB62A8316031344080A168A114D
:1004E8006B230A128A11831203134708DB0046089C
:1004F800DA004508D9004408D800831603134908D0
:1005080083120313DF0083160313480883120313AF
:10051800DE0083160313470883120313DD008316D6
:100528000313460883120313DC000A168A11782580
:100538000A128A11831203135B0883160313C90076
:10054800831203135A0883160313C8008312031374
:10055800590883160313C700831203135808831618
:100568000313C600831603133E08803AFF00803049
:100578007F02031DC12A0A303D020318C42AC52A76
:10058800242B83160313490883120313A30083162D
:100598000313480883120313A200831603134708A2
:1005A80083120313A100831603134608831203134F
:1005B800A0000030A7000030A6000030A5000030E1
:1005C800A4000A168A1516230A128A110318ED2A9E
:1005D800EE2AD02B83160313490883120313DA007B
:1005E80083160313480883120313D90083160313D1
:1005F800470883120313D80083160313460883128F
:100608000313D7000A168A158B250A128A1183123A
:1006180003135A08590458045704031D142B152BA7
:10062800D02B831603133E08803AFF0080307F02E8
:10063800031D202B02303D02031C232B242BD02B1F
:1006480083160313430883120313A30083160313AB
:10065800420883120313A20083160313410883126E
:100668000313A10083160313400883120313A00089
:100678004030A7008930A6007030A5005F30A40084
:100688000A168A15A0260A128A1103184C2B4D2B1C
:10069800562BF73083160313BD070318BE0AFF3025
:1006A800BE075E2BF83083160313BD070318BE0A76
:1006B800FF30BE073D080A128A159D240A128A11C6
:1006C80083120313470883160313C300831203130B
:1006D800460883160313C2008312031345088316C2
:1006E8000313C10083120313440883160313C000C5
:1006F800490883120313A3008316031348088312BF
:100708000313A20083160313470883120313A100DF
:1007180083160313460883120313A00083160313DA
:10072800430883120313A700831603134208831296
:100738000313A60083160313410883120313A500AD
:1007480083160313400883120313A4000A168A11A0
:10075800CE200A128A118312031323088316031367
:10076800BC0083120313220883160313BB008312F1
:100778000313210883160313BA00831203132008F6
:1007880083160313B9000030C9000030C8000030D8
:10079800C7000030C600362C83160313490883129D
:1007A8000313DA0083160313480883120313D900CE
:1007B80083160313470883120313D8008316031301
:1007C800460883120313D7000A168A158B250A12C6
:1007D8008A11831203135A0883160313BC00831269
:1007E8000313590883160313BB0083120313580815
:1007F80083160313BA0083120313570883160313CF
:10080800B9003C08F6003B08F5003A08F40039083E
:10081800F30000300A168A1544270A128A1176084E
:1008280083160313A3007508A2007408A1007308B7
:10083800A0004908A7004808A6004708A5004608E0
:10084800A4000A168A1566230A128A11831603134E
:100858002308C9002208C8002108C7002008C600CC
:10086800BD01BE01CA01CA0A4A08AD000130031021
:10087800AD0DFF3E031D3B2C03102D0D693E84007A
:100888000A168A150A200A128A11AE000A168A1553
:100898000A200A128A11AF000A168A150A200A12BB
:1008A8008A11B0000A168A150A200A128A11B100A4
:1008B80031083C02031D6A2C30083B02031D6A2CD8
:1008C8002F083A02031D6A2C2E08390203186D2CD2
:1008D8006E2C6F2C792C0130AD002D08CA070A3018
:1008E8004A06031D782C792C382C03303705AD00C7
:1008F80000303805AE002D082E040319842C852CF1
:10090800372D2D30AD003F0884002D08831380005B
:100918000130AD002D08BF07372D4A08AD00013062
:100928000310AD0DFF3E031D942C03102D0D693EE1
:1009380084000A168A150A200A128A1183120313E0
:10094800A0000A168A150A200A128A11A1000A169E
:100958008A150A200A128A11A2000A168A150A2084
:100968000A128A11A300831603133C088312031387
:10097800A700831603133B0883120313A6008316EC
:1009880003133A0883120313A500831603133908C7
:1009980083120313A4000A128A1500200A128A116E
:1009A80083120313230883160313C300831203134C
:1009B800220883160313C200831203132108831627
:1009C8000313C10083120313200883160313C00006
:1009D800003083120313A3000030A2000030A100EE
:1009E8000A30A00083160313430883120313A700D9
:1009F80083160313420883120313A60083160313F6
:100A0800410883120313A5008316031340088312B9
:100A18000313A4000A168A150C240A128A118312D9
:100A28000313230883160313C30083120313220836
:100A380083160313C20083120313210883160313BA
:100A4800C10083120313200883160313C000400853
:100A5800303EAD003F0884002D088313800001302C
:100A6800AD002D08BF070130CA024A0A031D3D2DFB
:100A78003E2D912C522D303083160313AD003F08C4
:100A880084002D08831380000130AD002D08BF07B6
:100A9800FF30BD070318BE0AFF30BE073E08803A84
:100AA800FF0080307F02031D5B2D01303D020318DB
:100AB8005E2D5F2D3F2D831603134508803AFF00F6
:100AC80080307F02031D6A2D09304402031C6D2DFE
:100AD8006E2D752D083083160313AD002D08CA003E
:100AE8007B2D831603134408AD002D08CA004A085D
:100AF800AD00AE012D08C4022E08031CC503C502B3
:100B08004A080319882D892D942D2E30AD003F08F1
:100B180084002D08831380000130AD002D08BF0725
:100B28004A080A128A159D240A128A11831203138D
:100B3800470883160313B500831203134608831668
:100B48000313B40083120313450883160313B30079
:100B580083120313440883160313B2003508831263
:100B68000313B10083160313340883120313B00070
:100B780083160313330883120313AF00831603137A
:100B8800320883120313AE00831603134908831235
:100B98000313AD0083160313480883120313AC0034
:100BA80083160313470883120313AB00831603133A
:100BB800460883120313AA000A128A153C210A1256
:100BC8008A11831203132D08DA002C08D9002B0888
:100BD800D8002A08D7000A168A158B250A128A1106
:100BE800831203135A0883160313BC0083120313DA
:100BF800590883160313BB0083120313580883167E
:100C08000313BA0083120313570883160313B9009A
:100C18000E2F4A08AD0001300310AD0DFF3E031D35
:100C2800102E03102D0D693E84000A168A150A201D
:100C38000A128A1183120313A0000A168A150A20C1
:100C48000A128A11A1000A168A150A200A128A11A4
:100C5800A2000A168A150A200A128A11A30083160E
:100C680003133C0883120313A700831603133B08DE
:100C780083120313A600831603133A08831203137F
:100C8800A50083160313390883120313A4000A125C
:100C98008A1500200A128A11831203132308831667
:100CA8000313C30083120313220883160313C2001D
:100CB80083120313210883160313C100831203133D
:100CC800200883160313C000003083120313A30007
:100CD8000030A2000030A1000A30A00083160313E0
:100CE800430883120313A7008316031342088312D1
:100CF8000313A60083160313410883120313A500E8
:100D080083160313400883120313A4000A168A15D6
:100D18000C240A128A11831203132308831603135F
:100D2800C30083120313220883160313C20083121D
:100D38000313210883160313C10083120313200829
:100D480083160313C0004008303EAD003F088400FE
:100D58002D08831380000130AD002D08BF074A0815
:100D6800AD0001300310AD0DFF3E031DB62E03107C
:100D78002D0D693E84000A168A150A200A128A1166
:100D880083120313A0000A168A150A200A128A1170
:100D9800A1000A168A150A200A128A11A2000A1648
:100DA8008A150A200A128A11A300831603133C0825
:100DB80083120313A700831603133B08831203133C
:100DC800A600831603133A0883120313A50083169B
:100DD8000313390883120313A4000A168A150C2476
:100DE8000A128A1183120313230883160313BC0003
:100DF80083120313220883160313BB008312031301
:100E0800210883160313BA008312031320088316DC
:100E18000313B9000130CA024A0A031D142F152F03
:100E28000D2E272F3030AD003F0884002D08831386
:100E380080000130AD002D08BF07FF30C40703183C
:100E4800C50AFF30C50744084504031D2C2F2D2F64
:100E5800162F732F44084504031D332F342F422FB8
:100E68003C083B043A043904031D3B2F3C2F422F16
:100E78000130C4070318C50A0030C5074508803A81
:100E8800803C031D492F44084A0203184C2F4D2F5C
:100E98004E2F5D2F831603134508803AAD0080302E
:100EA8002D02031D592F4A08440203185C2F5D2F99
:100EB8005D2F0330831603133705AD000030380566
:100EC800AE002D082E0403196A2F6B2F732F2D30B7
:100ED800AD003F0884002D088313800035280130B9
:100EE800A807FF30280784000A168A150A200A1264
:100EF8008A11AD002D08CA004A08031D842F852FCA
:100F080028283F088400831380010800F500DC2F9F
:100F1800831603130F178F160F168F110F158F10C7
:100F28000F14FE2F831603130F178F160F128F112E
:100F38000F158F100F14FE2F831603130F178F1220
:100F48000F168F110F158F100F14FE2F8316031312
:100F58000F178F120F128F110F158F100F14FE2FEE
:100F6800831603130F138F160F168F110F158F107B
:100F78000F14FE2F831603130F138F160F128F11E2
:100F88000F158F100F14FE2F831603130F138F12D4
:100F98000F168F110F158F100F14FE2F83160313C2
:100FA8000F138F120F128F110F118F140F14FE2FA2
:100FB8007508F300F4017408003A0319E42FFE2FB2
:100FC8007308003A03198C2F013A0319962F033A34
:100FD8000319A02F013A0319AA2F073A0319B42FAE
:100FE800013A0319BE2F033A0319C82F013A03190E
:060FF800D22FFE2F0800BD
:101000000030F7000030F6000030F5000030F4004A
:101010008312031323082204210420040319112836
:1010200012285F28F801F80A22280130F300031083
:10103000A00DA10DA20DA30DF30B17280130F30095
:101040007308F807A31F2528262815280130F30068
:101050000310F40DF50DF60DF70DF30B28282308FA
:101060002702031D3D2822082602031D3D282108D2
:101070002502031D3D2820082402031C4028412886
:1010800050282008A4022108031C210FA5022208D1
:10109000031C220FA6022308031C230FA7027414AB
:1010A00001300310A30CA20CA10CA00CFF3E031DE9
:1010B00051280130F802031D5E285F282628770892
:1010C000A3007608A2007508A1007408A00008001B
:1010D0000A168A15D4210A128A1501300A128A11B9
:1010E0008A270A128A150A168A15B6230A128A1541
:1010F0000A168A15A4210A128A1508300A168A15BA
:1011000007260A128A1501300A168A15FD210A12CD
:101110008A150A168A158B210A128A15831203135F
:101120009F189328942895289F1480300A168A11B6
:1011300000200A128A150A168A15E7210A128A1552
:101140009630F6008030F7000A168A1547220A12F8
:101150008A150A168A15E7210A128A154330831266
:101160000313C7007F30C6000030C5000030C40044
:101170004030AD00A030AC000030AB000030AA0021
:101180006C0883160313CB00CC01CD01CE014E08B1
:10119000F6004D08F5004C08F4004B08F300013050
:1011A0000A168A1544270A128A1576088312031331
:1011B000B1007508B0007408AF007308AE000A12E1
:1011C0008A153C210A128A15831203132D08CB00BD
:1011D0002C08CA002B08C9002A08C8000A168A1160
:1011E0008E210A128A1583120313470883160313EC
:1011F000D60083120313460883160313D500831207
:101200000313450883160313D40083120313440801
:1012100083160313D300C0300A168A1100200A1265
:101220008A150A168A15E7210A128A159130831643
:101230000313CB004B08A8005608AC005508AB00C0
:101240005408AA005308A900D7300A128A11202096
:101250000A128A15D730F6000030F7000A168A15F0
:1012600047220A128A150A168A15E7210A128A15D8
:101270008E280A128A110C28831203132D08803934
:10128000B2003208B7002D08B2003207B3003308AD
:10129000BD00AC1F4C294D294E293D143D080319B2
:1012A0005229532962293D0A031D572958296029CB
:1012B0000030AD000030AC000030AB000030AA00C0
:1012C000AC176A290030AD000030AC000030AB0034
:1012D0000030AA0031088039B2003208B706310860
:1012E000B2003207B3003308BC00B01F7829792957
:1012F0007A293C143C0803197E297F298E293C0A4F
:10130000031D832984298C290030B1000030B000EE
:101310000030AF000030AE00B01796290030B100A9
:101320000030B0000030AF000030AE003C080319C0
:101330009A299B29A0293D08031D9F29A029A92995
:101340000030AD000030AC000030AB000030AA002F
:101350009C2C2A08B2003208F30030080A168A15BD
:101360006D220A128A15740883120313C3007308CE
:10137000C2004208B200B301B401B5013508BB0098
:101380003408BA003308B9003208B8004308B20084
:10139000B301B401B5013508C1003408C0003308F9
:1013A000BF003208BE002B08B2003208F3002F083D
:1013B0000A168A156D220A128A15740883120313FD
:1013C000C3007308C2004208B200B301B401B50102
:1013D0003208B807330803110318013E0319F12935
:1013E000B907340803110318013E0319F829BA0795
:1013F000350803110318013E0319FF29BB074308F1
:10140000B200B301B401B5013208BE0733080311BD
:101410000318013E03190D2ABF07340803110318EE
:10142000013E0319142AC007350803110318013EB1
:1014300003191B2AC1072C08B2003208F3002E083A
:101440000A168A156D220A128A157408831203136C
:10145000C3007308C2004208B200B301B401B50171
:101460003208B807330803110318013E0319392A5B
:10147000B907340803110318013E0319402ABA07BB
:10148000350803110318013E0319472ABB07430817
:10149000B200B301B401B5013208BE07330803112D
:1014A0000318013E0319552ABF0734080311031816
:1014B000013E03195C2AC007350803110318013ED9
:1014C0000319632AC1070830B2000310B80DB90D23
:1014D000BA0DBB0DB20B652A2B08B2003208F3001F
:1014E0002E080A168A156D220A128A1574088312AC
:1014F0000313C3007308C2004208B2004308B300DC
:10150000B401B5013208B807330803110318013ECE
:1015100003198B2AB907340803110318013E031974
:10152000922ABA07350803110318013E0319992AB4
:10153000BB072A08B2003208F3002F080A168A15E2
:101540006D220A128A15740883120313C3007308EC
:10155000C2004208B2004308B300B401B50132082A
:10156000B807330803110318013E0319B82AB90755
:10157000340803110318013E0319BF2ABA073508BE
:1015800003110318013E0319C62ABB070830B20035
:101590000310B80DB90DBA0DBB0DB20BC82A2A083D
:1015A000B2003208F3002E080A168A156D220A12BC
:1015B0008A15740883120313C3007308C20042081B
:1015C000B2004308B300B401B5013208B8073308CC
:1015D00003110318013E0319EE2AB9073408031159
:1015E0000318013E0319F52ABA0735080311031839
:1015F000013E0319FC2ABB072B08B2003208F30096
:1016000030080A168A156D220A128A157408831288
:101610000313C3007308C2004208B2004308B300BA
:10162000B401B5013208BE07330803110318013EA7
:1016300003191B2BBF07340803110318013E0319BC
:10164000222BC007350803110318013E0319292B6B
:10165000C1072C08B2003208F3002F080A168A15B9
:101660006D220A128A15740883120313C3007308CB
:10167000C2004208B2004308B300B401B501320809
:10168000BE07330803110318013E0319482BBF0797
:10169000340803110318013E03194F2BC007350806
:1016A00003110318013E0319562BC1072C08B20081
:1016B0003208F30030080A168A156D220A128A15BC
:1016C000740883120313C3007308C2004208B200F7
:1016D0004308B300B401B50108300310B20DB30DD7
:1016E000B40DB50DFF3E031D6D2B3208BE07330848
:1016F00003110318013E03197E2BBF0734080311A1
:101700000318013E0319852BC00735080311031880
:10171000013E03198C2BC1073808B2003908B30009
:101720003A08B4003B08B50018300310B50CB40CEF
:10173000B30CB20CFF3E031D952B3208BE073308D5
:1017400003110318013E0319A62BBF073408031128
:101750000318013E0319AD2BC00735080311031808
:10176000013E0319B42BC1070830B2000310B80DB5
:10177000B90DBA0DBB0DB20BB62B3D083C07B2003C
:10178000B301B30D3208823EC20033080318013E94
:10179000FF3EC300E82B0130B2000310BE0DBF0DA9
:1017A000C00DC10DB20BCD2BBB1FD72BD82BD92B06
:1017B0003E140130B2000310B80DB90DBA0DBB0DC7
:1017C000B20BDB2BFF30C2070318C30AFF30C3077D
:1017D000C01FEB2BEC2BCB2BBC01BB1FF02BF12B39
:1017E0000D2CFF303805B200FF303905B300FF3053
:1017F0003A05B4007F303B05B500350834043304A6
:1018000032040319042C052C082CBC01BC0A0D2C35
:101810003E1C0B2C0C2C0D2C052C3C080319112CF8
:10182000122C432C0130BE07003003180130BF07D3
:10183000003003180130C007003003180130C10721
:10184000411C232C242C432C3E08B2003F08B3003B
:101850004008B4004108B5000130B600350DB50CA4
:10186000B40CB30CB20CB60B2E2C3508C1003408E6
:10187000C0003308BF003208BE000130C2070318A1
:10188000C30A0030C3074308803AFF0080307F025C
:10189000031D4C2CFF304202031C4F2C502C5B2CA0
:1018A0007F3083120313C1008030C0000030BF00BE
:1018B0000030BE00902C831203134308803AFF00CF
:1018C00080307F02031D662C013042020318692C10
:1018D0006A2C762C003083120313C1000030C00044
:1018E0000030BF000030BE00B701902C83120313FC
:1018F0004208B2003208BD00FF30BE05FF30BF0510
:101900007F30C0050030C1053D1C872C882C892CF8
:10191000C0173D08B2000310320CB3003308C100F9
:101920003708B2003208C1044108AD004008AC00DD
:101930003F08AB003E08AA00080083120313D6003C
:10194000D61FA32CA42C532ED609D60A5608803AAB
:10195000123E031CAC2CAD2C972D0A30A000003099
:10196000A1005608F500F601F51BF6036430F300FC
:101970000030F4000A168A1562240A128A157408C7
:1019800083120313A3007308A2000A168A152225E6
:101990000A128A15831203132008C80001300310AD
:1019A000C80DFF3E031DCF2C0310480D593E840087
:1019B0000A168A150A200A128A15C9000A168A15FB
:1019C0000A200A128A15CA000A168A150A200A1263
:1019D0008A15CB000A168A150A200A128A15CC002D
:1019E0004C08AD004B08AC004A08AB004908AA00FF
:1019F0006430A0000030A1005608A200A301A21B81
:101A0000A3030A168A1522250A128A1583120313C4
:101A10002008CD0001300310CD0DFF3E031D0B2D1E
:101A200003104D0D7D3E84000A168A150A200A1205
:101A30008A15CE000A168A150A200A128A15CF00C6
:101A40000A168A150A200A128A15D0000A168A1563
:101A50000A200A128A15D1005108B1005008B000BE
:101A60004F08AF004E08AE000A128A153C210A1238
:101A70008A15831203132D08D5002C08D4002B08D7
:101A8000D3002A08D2000A30F3000030F4005608D0
:101A9000F500F601F51BF6030A168A1562240A12F0
:101AA0008A15730883120313C80001300310C80D90
:101AB000FF3E031D562D0310480D353E84000A16C7
:101AC0008A150A200A128A15C9000A168A150A20E0
:101AD0000A128A15CA000A168A150A200A128A15DD
:101AE000CB000A168A150A200A128A15CC004C0867
:101AF000AD004B08AC004A08AB004908AA005508E5
:101B0000B1005408B0005308AF005208AE000A12EA
:101B10008A153C210A128A15831203132D08C70067
:101B20002C08C6002B08C5002A08C400FF2F560841
:101B3000803A753E031C9D2D9E2D262E0A30F30003
:101B40000030F4005608F500F601F51BF6030A16FE
:101B50008A1562240A128A15730883120313C800B7
:101B600001300310C80DFF3E031DB12D0310480DB9
:101B7000353E84000A168A150A200A128A15C90001
:101B80000A168A150A200A128A15CA000A168A1528
:101B90000A200A128A15CB000A168A150A200A1290
:101BA0008A15CC004C08AD004B08AC004A08AB00CD
:101BB0004908AA000A30A0000030A1005608A2007F
:101BC000A301A21BA3030A168A1522250A128A154D
:101BD000831203132008CD0001300310CD0DFF3E0A
:101BE000031DED2D03104D0D593E84000A168A1574
:101BF0000A200A128A15CE000A168A150A200A122D
:101C00008A15CF000A168A150A200A128A15D000F2
:101C10000A168A150A200A128A15D1005108B10045
:101C20005008B0004F08AF004E08AE000A128A15E7
:101C30003C210A128A15831203132D08C7002C08B1
:101C4000C6002B08C5002A08C400FF2F5608C8008C
:101C500001300310C80DFF3E031D292E0310480D4F
:101C6000353E84000A168A150A200A128A15C90010
:101C70000A168A150A200A128A15CA000A168A1537
:101C80000A200A128A15CB000A168A150A200A129F
:101C90008A15CC004C08C7004B08C6004A08C5008E
:101CA0004908C400FF2F5608803A123E031C592EE3
:101CB0005A2E442F0A30A0000030A1005608F5002B
:101CC000F601F51BF6036430F3000030F4000A1649
:101CD0008A1562240A128A15740883120313A3005A
:101CE0007308A2000A168A1522250A128A15831281
:101CF00003132008C80001300310C80DFF3E031D68
:101D00007C2E0310480D253E84000A168A150A20F1
:101D10000A128A15C9000A168A150A200A128A159B
:101D2000CA000A168A150A200A128A15CB000A165A
:101D30008A150A200A128A15CC004C08AD004B08FF
:101D4000AC004A08AB004908AA006430A00000308B
:101D5000A1005608A200A301A21BA3030A168A151C
:101D600022250A128A15831203132008CD000130A0
:101D70000310CD0DFF3E031DB82E03104D0D493E3F
:101D800084000A168A150A200A128A15CE000A163D
:101D90008A150A200A128A15CF000A168A150A2007
:101DA0000A128A15D0000A168A150A200A128A1504
:101DB000D1005108B1005008B0004F08AF004E08E4
:101DC000AE000A128A153C210A128A1583120313E7
:101DD0002D08D5002C08D4002B08D3002A08D200E7
:101DE0000A30F3000030F4005608F500F601F51B48
:101DF000F6030A168A1562240A128A1573088312DA
:101E00000313C80001300310C80DFF3E031D032F4C
:101E10000310480D013E84000A168A150A200A1292
:101E20008A15C9000A168A150A200A128A15CA00DC
:101E30000A168A150A200A128A15CB000A168A1574
:101E40000A200A128A15CC004C08AD004B08AC00E1
:101E50004A08AB004908AA005508B1005408B00070
:101E60005308AF005208AE000A128A153C210A122C
:101E70008A15831203132D08C7002C08C6002B08EF
:101E8000C5002A08C400FF2F5608803A753E031C7F
:101E90004A2F4B2FD32F0A30F3000030F40056089E
:101EA000F500F601F51BF6030A168A1562240A12DC
:101EB0008A15730883120313C80001300310C80D7C
:101EC000FF3E031D5E2F0310480D013E84000A16DD
:101ED0008A150A200A128A15C9000A168A150A20CC
:101EE0000A128A15CA000A168A150A200A128A15C9
:101EF000CB000A168A150A200A128A15CC004C0853
:101F0000AD004B08AC004A08AB004908AA000A30F3
:101F1000A0000030A1005608A200A301A21BA30349
:101F20000A168A1522250A128A158312031320081D
:101F3000CD0001300310CD0DFF3E031D9A2F03107D
:101F40004D0D253E84000A168A150A200A128A15AC
:101F5000CE000A168A150A200A128A15CF000A1620
:101F60008A150A200A128A15D0000A168A150A2034
:101F70000A128A15D1005108B1005008B0004F086C
:101F8000AF004E08AE000A128A153C210A128A15CB
:101F9000831203132D08C7002C08C6002B08C500A8
:101FA0002A08C400FF2F5608C80001300310C80DCE
:101FB000FF3E031DD62F0310480D013E84000A1674
:101FC0008A150A200A128A15C9000A168A150A20DB
:101FD0000A128A15CA000A168A150A200A128A15D8
:101FE000CB000A168A150A200A128A15CC004C0862
:101FF000C7004B08C6004A08C5004908C4000800CD
:10200000F500750883120313850007108710071564
:102010000A168A15E7210A168A118312031307117B
:102020000800831203132008F3002108F40022089B
:10203000F5000310740D750DF6007608AD002D083F
:10204000031D232824282D280030A3000030A200DF
:102050000030A1000030A000CD282408F30025089E
:10206000F4002608F5000310740D750DF6007608CF
:10207000AC002C08031D3D283E283F282428A1172A
:10208000FF30A005FF30A1050030A205A517FF30E5
:10209000A405FF30A5050030A6050030AB000030D8
:1020A000AA000030A9000030A8007F30AD029830AF
:1020B0002C07F3007308AD021830F3007308AC006E
:1020C0000130F3000310A80DA90DAA0DAB0DF30B01
:1020D000622826082202031D732825082102031DF9
:1020E000732824082002031C7628772882282408D5
:1020F000A0022508031C250FA1022608031C260A9E
:10210000A202281401300310A00DA10DA20DFF3E64
:10211000031D83280130AC02031D8F2890286028FE
:10212000AD1F93289428AE282D08803A973E0318B7
:102130009A289B289C28242801300310AB0CAA0C59
:10214000A90CA80CFF3E031D9D280130F300730865
:10215000AD07031DAC28AD289C28C52818302D02DA
:10216000031CB328B428C02824280130F30003102E
:10217000A80DA90DAA0DAB0DF30BB7280130AD02C8
:102180002D08031DC428C528B5282B08A3002A083C
:10219000A2002908A1002808A0000800031083124B
:1021A0000313220D230DF3007308F9007908031DB2
:1021B000DA28DB28E4280030A3000030A200003039
:1021C000A1000030A0008D290310260D270DF3007B
:1021D0007308F8007808031DEE28EF28F028DB28A4
:1021E000A217FF30A005FF30A105FF30A205003087
:1021F000A305A617FF30A405FF30A505FF30A605EF
:102200000030A7050030F7000030F6000030F50080
:102210000030F4007F30F902A0307807F300730833
:10222000F9022030F3007308F8000130F3000310C6
:10223000F40DF50DF60DF70DF30B17292708230202
:10224000031D2C2926082202031D2C292508210202
:10225000031D2C2924082002031C2F2930293F2983
:102260002408A0022508031C250FA1022608031C30
:10227000260FA2022708031C270FA30274140130A3
:10228000F3000310A00DA10DA20DA30DF30B412926
:102290000130F802031D4D294E291529F91F512936
:1022A00052296C297908803A9F3E031858295929E8
:1022B0005A29DB2801300310F70CF60CF50CF40C4E
:1022C000FF3E031D5B290130F3007308F907031D6E
:1022D0006A296B295A29832920307902031C712924
:1022E00072297E29DB280130F3000310F40DF50D6F
:1022F000F60DF70DF30B75290130F9027908031D6E
:10230000822983297329770883120313A30076088F
:10231000A2007508A1007408A0000800831203132E
:102320004B088039CC004C08D5004B08CC004C073A
:10233000CD004D08DC00CA1F9E299F29A0295C14EE
:102340005C080319A429A529B5295C0A031DA9293C
:10235000AA29B2290030CB000030CA000030C900E1
:102360000030C800CA17CB01BD290030CB000030B7
:10237000CA000030C9000030C80047088039CC00CE
:102380004C08D5064708CC004C07CD004D08DD00B1
:10239000C61FCB29CC29CD295D145D080319D1298D
:1023A000D229E2295D0A031DD629D729DF29003069
:1023B000C7000030C6000030C5000030C400C6179A
:1023C000C701EA290030C7000030C6000030C50050
:1023D0000030C4004708460445044404031DF129A5
:1023E000F2290B2A0030CB000030CA000030C900AF
:1023F0000030C8008030CA047F30CB045508CC00C0
:102400004C08CB044B08C7004A08C6004908C50061
:102410004808C4006A2B5C08031D0F2A102A192AD9
:102420000030C7000030C6000030C5000030C400D6
:102430006A2B5C08CC00CD014D08CF005D084C0232
:10244000CE00031CCF034E087F3ED6004F08031872
:10245000013E003ED7004B08D4004A08D30049088B
:10246000D2004808D1000030CB000030CA00003054
:10247000C9000030C8000030DB000030DA00003056
:10248000D9000030D800DD018F2A5D080319492AE0
:102490004A2A6A2A0130CC000310D10DD20DD30D87
:1024A000D40DCC0B4C2A0130CC000310C80DC90D43
:1024B000CA0DCB0DCC0B552ADB1F5F2A602A612A7F
:1024C00048140130CC000310D80DD90DDA0DDB0D06
:1024D000CC0B632A47085402031D782A460853028E
:1024E000031D782A45085202031D782A4408510228
:1024F000031C7B2A7C2A8B2A5B174408D1024508DF
:10250000031C450FD2024608031C460FD30247089E
:10251000031C470FD4020130CC004C08DD071A30F1
:102520005D02031C942A952A452A54085304520438
:10253000510403199C2A9D2ABC2A5814BC2A013034
:10254000CC000310C80DC90DCA0DCB0DCC0BA12AB0
:10255000DB1FAB2AAC2AAD2A48140130CC00031093
:10256000D80DD90DDA0DDB0DCC0BAF2AFF30D60715
:102570000318D70AFF30D707CA1FBF2AC02A9F2ACD
:10258000DD01DB1FC42AC52AE12AFF305805CC0033
:10259000FF305905CD00FF305A05CE007F305B0576
:1025A000CF004F084E044D044C040319D82AD92AF1
:1025B000DC2ADD01DD0AE12A481CDF2AE02AE12AC3
:1025C000D92A5D080319E52AE62A172B0130C80726
:1025D000003003180130C907003003180130CA0762
:1025E000003003180130CB074B1CF72AF82A172BB1
:1025F0004808CC004908CD004A08CE004B08CF005F
:102600000130D0004F0DCF0CCE0CCD0CCC0CD00B2C
:10261000022B4F08CB004E08CA004D08C9004C08D9
:10262000C8000130D6070318D70A0030D70757086B
:10263000803AFF0080307F02031D202BFF305602BE
:10264000031C232B242B322BFF3083120313D600C1
:102650000030D7000030CB000030CA000030C90085
:102660000030C800831203135708803AFF008030FF
:102670007F02031D3D2B013056020318402B412BD6
:102680004E2B83120313D601D7010030CB0000304C
:10269000CA000030C9000030C800D50183120313FE
:1026A0005608CC004C08DC005C1C572B582B5A2BCE
:1026B000CA175E2B7F30CC004C08CA055C08CC00E2
:1026C00003104C0CCD004D08CB005508CC004C0835
:1026D000CB04022A080083120313D7006E3057027E
:1026E000031C732B742B832C3F30AD000030AC00E7
:1026F0000030AB000030AA006430A0000030A10020
:102700005708C800C9014808A2004908A3000A16D2
:102710008A15D0220A168A11831203132008CA00D0
:1027200001300310CA0DFF3E031D912B03104A0D0B
:102730007D3E84000A168A150A200A168A11CB00EB
:102740000A168A150A200A168A11CC000A168A155A
:102750000A200A168A11CD000A168A150A200A16BE
:102760008A11CE004E08B1004D08B0004C08AF00F1
:102770004B08AE000A128A153C210A168A118312F0
:1027800003132D08D6002C08D5002B08D4002A08E6
:10279000D3000A30A0000030A1005708C800C901CA
:1027A0004808F5004908F6006430F3000030F400F2
:1027B0000A168A1596220A168A11740883120313C0
:1027C000A3007308A2000A168A15D0220A168A11DD
:1027D000831203132008CA0001300310CA0DFF3E04
:1027E000031DED2B03104A0D593E84000A168A156D
:1027F0000A200A168A11CB000A168A150A200A1620
:102800008A11CC000A168A150A200A168A11CD00F0
:102810000A168A150A200A168A11CE004E08AD0043
:102820004D08AC004C08AB004B08AA005608B1009C
:102830005508B0005408AF005308AE000A128A15BC
:102840003C210A168A11831203132D08D2002C088A
:10285000D1002B08D0002A08CF000A30F300003046
:10286000F4005708C800C9014808F5004908F600F7
:102870000A168A1596220A168A1173088312031300
:10288000CA0001300310CA0DFF3E031D422C031085
:102890004A0D353E84000A168A150A200A168A1146
:1028A000CB000A168A150A200A168A11CC000A16CD
:1028B0008A150A200A168A11CD000A168A150A20DE
:1028C0000A168A11CE004E08AD004D08AC004C0827
:1028D000AB004B08AA005208B1005108B0005008E4
:1028E000AF004F08AE000A128A153C210A168A1161
:1028F000831203132D08C7002C08C6002B08C5003F
:102900002A08C400772D0B305702031C882C892C11
:10291000342D3F30AD000030AC000030AB00003053
:10292000AA000A30A0000030A1005708C800C90161
:102930004808A2004908A3000A168A15D0220A16E0
:102940008A11831203132008CA0001300310CA0D34
:10295000FF3E031DA62C03104A0D593E84000A16A3
:102960008A150A200A168A11CB000A168A150A202F
:102970000A168A11CC000A168A150A200A168A112C
:10298000CD000A168A150A200A168A11CE004E08B2
:10299000B1004D08B0004C08AF004B08AE000A1261
:1029A0008A153C210A168A11831203132D08D600BA
:1029B0002C08D5002B08D4002A08D3000A30F300D5
:1029C0000030F4005708C800C9014808F50049085C
:1029D000F6000A168A1596220A168A1173088312BF
:1029E0000313CA0001300310CA0DFF3E031DF32C70
:1029F00003104A0D353E84000A168A150A200A166D
:102A00008A11CB000A168A150A200A168A11CC00F0
:102A10000A168A150A200A168A11CD000A168A1586
:102A20000A200A168A11CE004E08AD004D08AC00EF
:102A30004C08AB004B08AA005608B1005508B0007E
:102A40005408AF005308AE000A128A153C210A163A
:102A50008A11831203132D08C7002C08C6002B0807
:102A6000C5002A08C400772D3F30AD000030AC000F
:102A70000030AB000030AA005708C8000130031036
:102A8000C80DFF3E031D3F2D0310480D353E840049
:102A90000A168A150A200A168A11C9000A168A150A
:102AA0000A200A168A11CA000A168A150A200A166E
:102AB0008A11CB000A168A150A200A168A11CC0040
:102AC0004C08B1004B08B0004A08AF004908AE00FE
:102AD0000A128A153C210A168A11831203132D0843
:102AE000C7002C08C6002B08C5002A08C40008002F
:102AF000831203135B088039E0006008E8005B087C
:102B0000E0006007E1006108EA00DA1F882D892DE6
:102B10008A2D6A146A0803198E2D8F2D9F2D6A0A3B
:102B2000031D932D942D9C2D0030DB000030DA0026
:102B30000030D9000030D800DA17DB01A72D0030B3
:102B4000DB000030DA000030D9000030D8005F0828
:102B50008039E0006008E900690868060319B12DB2
:102B6000B22DB32D68175F08E0006007E10061082F
:102B7000E900DE1FBC2DBD2DBE2D691469080319A7
:102B8000C22DC32DD32D690A031DC72DC82DD02DED
:102B90000030DF000030DE000030DD000030DC00FF
:102BA000DE17DF01DB2D0030DF000030DE000030FB
:102BB000DD000030DC006A0869020318E02DE12D19
:102BC000252E681FE42DE52DE92D8030E0006008FA
:102BD000E8066A08E0006008EB006908E0006008A9
:102BE000EA006B08E0006008E9005808E0006008AF
:102BF000EB005C08E0006008D8006B08E0006008AB
:102C0000DC005908E0006008EB005D08E0006008A7
:102C1000D9006B08E0006008DD005A08E000600899
:102C2000EB005E08E0006008DA006B08E000600876
:102C3000DE005B08E0006008EB005F08E000600871
:102C4000DB006B08E0006008DF00EB016908E000D2
:102C5000E1016108E3006A086002E200031CE3038B
:102C60006308803AFF0080307F02031D392E1A303E
:102C70006202031C3C2E3D2E7A2E831203135B0846
:102C80005A0459045804031D462E482E0130492E7B
:102C90000030E0006008EB000030DB000030DA00BC
:102CA0000030D9000030D8006908E0006008EA0070
:102CB000822E6B1C5C2E5D2E662E6B08E0000310CE
:102CC000600C0138E1006108EB00682E0310EB0C8A
:102CD000581C6B2E6C2E6D2EEB170130E0005B0D37
:102CE000DB0CDA0CD90CD80CE00B6F2E0130E000B5
:102CF0006008EA078312031369086A02031C812E25
:102D0000822E592E681B852E862ED12E6A08031D11
:102D10008A2E8B2E942E0030DB000030DA0000303B
:102D2000D9000030D800FF2F5C08D8075D080311D8
:102D30000318013E03199D2ED9075E0803110318DD
:102D4000013E0319A42EDA075F0803110318013EA0
:102D50000319AB2EDB075B1CAE2EAF2E852F6B1C31
:102D6000B22EB32EBC2E6B08E0000310600C0138AD
:102D7000E1006108EB00BE2E0310EB0C581CC12EC5
:102D8000C22EC32EEB170130E0005B0DDB0CDA0C1A
:102D9000D90CD80CE00BC52E0130E0006008EA0722
:102DA000852F5B08803AFF005F08803A7F02031D91
:102DB000E32E5E085A02031DE32E5D085902031D2F
:102DC000E32E5C0858020318E62EE72E3F2FFF3053
:102DD000E000FF30E100FF30E200FF30E3005C087C
:102DE000E4005D08E5005E08E6005F08E7005808BB
:102DF000E4025908031C590FFE2EFF2EE5025A0863
:102E0000031C5A0F042F052FE6025B08031C5B0FFF
:102E10000A2F0B2FE7026408E00765080318650F07
:102E2000122F132FE10766080318660F182F192FAA
:102E3000E20767080318670AE3076308DB00620814
:102E4000DA006108D9006008D8008030E00060082E
:102E5000E806EB09EB0A6B08031D2F2F302F4D2FCF
:102E60000130D807003003180130D90700300318AB
:102E70000130DA07003003180130DB074D2F5C0802
:102E8000D8025D08031C5D0FD9025E08031C5E0FAB
:102E9000DA025F08031C5F0FDB025B085A04590467
:102EA0005804031D542F552F812F6B08031D592FD4
:102EB0005A2F812F0030DB000030DA000030D900BB
:102EC0000030D800FF2F0130E0000310D80DD90DDD
:102ED000DA0DDB0DE00B652FEB1F6F2F702F712FBD
:102EE00058146B1C742F752F782F0314EB0D7A2F49
:102EF0000310EB0D6A0803197E2F7F2F812F0130FD
:102F0000EA02DA1F842F852F632FE901EB1F892F37
:102F10008A2F982F6B087F3903198F2F902F932FAB
:102F2000E901E90A982F581C962F972F982F902F78
:102F3000690803199C2F9D2FD12F0130D80700302D
:102F400003180130D907003003180130DA070030C8
:102F500003180130DB075B1CAE2FAF2FD12F5808B1
:102F6000E0005908E1005A08E2005B08E300013084
:102F7000E400630DE30CE20CE10CE00CE40BB92F70
:102F80006308DB006208DA006108D9006008D80035
:102F90006A0A0319CC2FCD2FD12F0130E000600831
:102FA000EA076A0A0319D52FD62FDB2F6A08031DFB
:102FB000DA2FDB2FE92F0030DB000030DA000030A1
:102FC000D9000030D8006A08031DE72FE82FE92F49
:102FD000E8016A1CEC2FED2FEF2FDA17F32F7F306B
:102FE000E0006008DA056A08E0000310600CE10008
:102FF0006108DB00E81FFD2FFE2FFF2FDB17080005
:10300000FF1B0A2883137F1883170008840A0319FB
:10301000FF0A080018308A000408840A8207003476
:103020000034003480343F340034003420344134E0
:1030300000340034C8344234003400347A34443428
:10304000003440341C34463400345034C3344734E4
:1030500000342434743449348034963418344B3476
:103060002034BC34BE344C3428346B346E344E348B
:10307000F934023415345034EC347834AD346034DF
:10308000CA34F234493471340034003480343F346B
:10309000CD34CC34CC343D340A34D73423343C34AE
:1030A0006F34123483343A341734B734D13438346B
:1030B000AC34C53427343734BD34373486343534F2
:1030C0009534BF34D63433347734CC342B34323463
:1030D0005F34703489343034FF34E634DB342E34DA
:1030E0000834E5343C341E3460344234A2340D34A8
:1030F00001340034003400340A3400340034003425
:103100006434003400340034E834033400340034D0
:103110001034273400340034A034863401340034B1
:10312000403442340F3400348034963498340034C0
:103130000034E134F53405340034CA349A343B3475
:1031400025342E34313466340034533431343A3437
:02315000003449
:103316008B170B17831603130C1708006400800124
:10332600840A0406031900340406922976087504F3
:10333600740473040319A029A129A3298030F60671
:103346000800831203131F14831603139F139F127F
:103356001F120C17831203130C130800F5007508CF
:103366008312031385000714871007150A168A159A
:10337600E7210A168A158312031307110800F400C1
:10338600F3013A3074020318C929CA29D229303008
:103396007402031CCF29D029D229F301F30A730C36
:1033A6000800831603138501FF3086008701880114
:1033B60083160317880189160914831203138501DE
:1033C6008601870188010800F301F4010130F30743
:1033D6000318F40A0030F4077408803AFF008030BE
:1033E6007F02031DF82932307302031CFB29FC29D6
:1033F600E9290800F5000E2A831203139F131F13F1
:10340600212A831203139F131F17212A83120313E2
:103416009F171F13212A7508F300F4017408003A58
:103426000319162A212A7308003A0319FF29013ABB
:103436000319042A023A0319092A212A0800F70166
:10344600F801731C272A282A2E2A7508F70703185D
:10345600F80A7608F80701300310F50DF60DFF3E61
:10346600031D2F2A01300310F40CF30CFF3E031D3D
:10347600362A73087404031D412A422A242A78082E
:10348600F4007708F30008005C2A7708FF00760846
:1034960084000A168A1500200A168A150A168A1545
:1034A600B1210A168A150130F6070318F70A00300B
:1034B600F707770883120313FF00760884000A16BD
:1034C6008A1500200A168A15003A031D6B2A6C2AF3
:1034D600482A080083120313A400A001A10173085F
:1034E600F500F6017508A2007608A300241C7C2AC4
:1034F6007D2A832A2208A0070318A10A2308A10708
:1035060001300310A20DA30DFF3E031D842A0310F4
:10351600A40C2408031D902A912A792A2108F40074
:103526002008F30008007308740403199B2A9C2AD8
:10353600CB2AF801F80AAA2A01300310F30DF40D7C
:10354600FF3E031DA02A0130F7007708F807F41F95
:10355600AD2AAE2A9F2A74087602031DB42A730880
:103566007502031CB72AB82ABE2A7308F502740826
:10357600031CF603F60201300310F40CF30CFF3EB5
:10358600031DBF2A0130F802031DCA2ACB2AAE2A20
:103596007608F4007508F300080083120313A401EB
:1035A600A501200821040319D92ADA2A112BA6011C
:1035B600A60AE82A01300310A00DA10DFF3E031D47
:1035C600DE2A0130F9007908A607A11FEB2AEC2AAA
:1035D600DD2A01300310A40DA50DFF3E031DED2AC3
:1035E60021082302031DF92A20082202031CFC2AB3
:1035F600FD2A042B2008A2022108031CA303A30210
:10360600241401300310A10CA00CFF3E031D052B52
:103616000130A602031D102B112BEC2A2508A10050
:103626002408A00008000030831203132005F300CD
:1036360000302105F40080302205F5007F30230597
:10364600F6007608750474047304031D2B2B2C2BCB
:10365600342B0030A3000030A2000030A10000305F
:10366600A00000302405F30000302505F40080306A
:103676002605F5007F302705F600760875047404E4
:103686007304031D472B482B502B0030A700003036
:10369600A6000030A5000030A40027082306031D5D
:1036A6005E2B26082206031D5E2B25082106031D18
:1036B6005E2B240820060319612B622B642B031052
:1036C600652B03140800803083160313A30627080E
:1036D60083120313DB0083160313260883120313D6
:1036E600DA0083160313250883120313D900831601
:1036F6000313240883120313D80083160313230825
:1037060083120313DF0083160313220883120313A5
:10371600DE0083160313210883120313DD008316CC
:103726000313200883120313DC000A168A11782576
:103736000A168A15831203135B0883160313A30064
:10374600831203135A0883160313A200831203136A
:10375600590883160313A10083120313580883160E
:103766000313A00008001A30F700F830F600F60B35
:10377600BA2BF70BBA2B000030300A168A1100203C
:103786000A168A150730F7007D30F600F60BC92BAE
:10379600F70BC92B30300A168A1100200A168A1533
:1037A600C730F600D62BF60BD52BD92BDA2B3030BB
:1037B6000A168A1100200A168A15C730F600E32B6E
:1037C600F60BE22BE62BE72B38300A168A1100207F
:1037D6000A168A1510300A168A1100200A168A154A
:1037E60001300A168A1100200A168A1506300A16B2
:1037F6008A1100200A168A150C300A168A11002032
:103806000A168A1580300A168A1100200A168A15A9
:103816000800831203132308220421042004031939
:10382600152C162C592CF401F40A262C0130F30021
:103836000310A00DA10DA20DA30DF30B1B2C01303F
:10384600F3007308F407A31F292C2A2C192C23082C
:103856002702031D382C22082602031D382C2108B6
:103866002502031D382C20082402031C3B2C3C2C6B
:103876004A2C2008A4022108031C210FA5022208B5
:10388600031C220FA6022308031C230FA7020130E4
:103896000310A30CA20CA10CA00CFF3E031D4B2C85
:1038A6000130F402031D582C592C2A2C2708A3009A
:1038B6002608A2002508A1002408A0000800F90196
:1038C600F61F662C672C6E2CF509F609F50A031906
:1038D600F60AF901F90AF41F712C722C772CF309F8
:1038E600F409F30A0319F40A7308740403197C2C07
:1038F6007D2CAC2CF801F80A8B2C01300310F30D4B
:10390600F40DFF3E031D812C0130F7007708F80700
:10391600F41F8E2C8F2C802C74087602031D952C98
:1039260073087502031C982C992C9F2C7308F502BA
:103936007408031CF603F60201300310F40CF30CB2
:10394600FF3E031DA02C0130F802031DAB2CAC2C4E
:103956008F2C79080319B02CB12CB62CF509F60971
:10396600F50A0319F60A7608F4007508F30008004C
:103976008B13831203130C1FC12CC22CD82C9F1E31
:10398600C52CC62CD82C1F1AC92CCA2CD82C9F196A
:10399600CD2CCE2CD82C1F19D12CD22CD82C1E08CD
:1039A600F0007008EC000C13F12C0C1FDB2CDC2C47
:1039B600F12C9F1EDF2CE02CF12C1F1EE32CE42C97
:1039C600F12C9F19E72CE82CF12C1F1DEB2CEC2C6D
:1039D600F12C1E08F0007008FA000C139F1EF42C40
:1039E600F52C062D1F1AF82CF92C062D9F19FC2CE8
:1039F600FD2C062D1F19002D012D062D9F161F16B5
:103A06009F111F151A2D9F1E092D0A2D1A2D1F1ED7
:103A16000D2D0E2D1A2D9F19112D122D1A2D1F1D2C
:103A2600152D162D1A2D9F161F129F111F118B175C
:103A360072088A00710E8300FE0E7E0E0900831244
:103A46000313A601A11F282D292D302DA009A10998
:103A5600A00A0319A10AA601A60AA31F332D342D15
:103A66003D2DA209A309A20A0319A30A0130A40045
:103A76002408A606A701A801200821040319442D3D
:103A8600452D7C2DA501A50A532D01300310A00D4F
:103A9600A10DFF3E031D492D0130A4002408A507F2
:103AA600A11F562D572D482D01300310A70DA80D27
:103AB600FF3E031D582D21082302031D642D2008F7
:103AC6002202031C672D682D6F2D2008A2022108F3
:103AD600031CA303A302271401300310A10CA00C9E
:103AE600FF3E031D702D0130A502031D7B2D7C2D8D
:103AF600572D26080319802D812D862DA709A80983
:103B0600A70A0319A80A2808A1002708A000080088
:103B1600031083120313590D5A0DDB005B08E100F5
:103B26006108031D972D982DA12D0030DA00003075
:103B3600D9000030D8000030D700062E5708DB0029
:103B46005808DC005908DD005A08DE001F30031053
:103B5600DE0CDD0CDC0CDB0CFF3E031DAA2D5B0826
:103B6600DF005F08E000D917FF30D705FF30D80522
:103B7600FF30D9050030DA059630E102E11FC42D89
:103B8600C52DDF2D6108803A973E0318CB2DCC2D2D
:103B9600CD2D982D01300310DA0CD90CD80CD70C8A
:103BA600FF3E031DCE2D0130DB005B08E107031D40
:103BB600DD2DDE2DCD2DF62D20306102031CE42DEA
:103BC600E52DF12D982D0130DB000310D70DD80D12
:103BD600D90DDA0DDB0BE82D0130E1026108031D7A
:103BE600F52DF62DE62D60080319FA2DFB2D062E70
:103BF600D709D809D909DA09D70A0319D80A03193E
:103C0600D90A0319DA0A0800F5006B2E831203138A
:103C16009F121F129F111F119F2E831203139F12B3
:103C26001F129F111F159F2E831203139F121F121F
:103C36009F151F119F2E831203139F121F129F158C
:103C46001F159F2E831203139F121F169F111F11FC
:103C56009F2E831203139F121F169F111F159F2E4F
:103C6600831203139F121F169F151F119F2E831277
:103C760003139F121F169F151F159F2E83120313E2
:103C86009F161F129F111F119F2E831203139F163B
:103C96001F129F111F159F2E831203139F161F12AB
:103CA6009F151F119F2E831203139F161F129F1518
:103CB6001F159F2E831203139F161F169F111F1188
:103CC6009F2E831203139F161F169F111F159F2EDB
:103CD6007508F300F4017408003A0319732E9F2E39
:103CE6007308003A0319092E013A0319102E033AF4
:103CF6000319172E013A03191E2E073A0319252E0A
:103D0600013A03192C2E033A0319332E013A0319EB
:103D16003A2E0F3A0319412E013A0319482E033A57
:103D260003194F2E013A0319562E073A03195D2E31
:103D3600013A0319642E9F2E0800003083120313E4
:103D46002005F30000302105F40080302205F5003F
:103D56007F302305F6007608750474047304031D8A
:103D6600B52EB62EBE2E0030A3000030A2000030C5
:103D7600A1000030A00000302405F3000030250526
:103D8600F40080302605F5007F302705F60076081A
:103D9600750474047304031DD12ED22EDA2E00305E
:103DA600A7000030A6000030A5000030A400A31F25
:103DB600DD2EDE2E022F0030F3000030F40000303E
:103DC600F5008030F6002008F3022108031C210FBD
:103DD600ED2EEE2EF4022208031C220FF32EF42EF3
:103DE600F5022308031C230FF92EFA2EF602760895
:103DF600A3007508A2007408A1007308A000A71FFD
:103E0600052F062F2A2F0030F3000030F400003073
:103E1600F5008030F6002408F3022508031C250F60
:103E2600152F162FF4022608031C260F1B2F1C2FF6
:103E3600F5022708031C270F212F222FF6027608EA
:103E4600A7007508A6007408A5007308A4008030B2
:103E5600A3068030A70627082302031D3C2F260849
:103E66002202031D3C2F25082102031D3C2F240896
:103E7600200203183F2F402F422F0310432F031415
:103E8600080083120313A400240803194B2F4C2F98
:103E9600602FF61F4F2F502F602F7309A60074094D
:103EA600A7007509A8007609A900A60A0319A70A9A
:103EB6000319A80A0319A90A682F7608A900750824
:103EC600A8007408A7007308A60076087504740491
:103ED6007304031D6F2F702F792F0030F60000300A
:103EE600F5000030F4000030F300FF2F9630A000FC
:103EF6002008A5008B2F0130A0002008A50701305F
:103F06000310A90CA80CA70CA60CFF3E031D832FBB
:103F1600FE302905031D902F912F7E2FAD2F0130E6
:103F2600A0002008A5070130A607003003180130BD
:103F3600A707003003180130A80700300318013026
:103F4600A90701300310A90CA80CA70CA60CFF3E6C
:103F5600031DA52FFF302905031DB22FB32F922F66
:103F6600BF2F0130A5020130A0000310A60DA70D3A
:103F7600A80DA90DA00BB82FA81BC22FC32FC92FA0
:103F8600023025020318C82FC92FB42F2518CC2FAD
:103F9600CD2FD52FFF30A605FF30A7057F30A8050A
:103FA600FF30A9050310A50C2508A000A101A20158
:103FB600A30118300310A00DA10DA20DA30DFF3E05
:103FC600031DDD2F2008A6042108A7042208A80443
:103FD6002308A90424080319F12FF22FF72FF61F3F
:103FE600F52FF62FF72FA9172908F6002808F50050
:0A3FF6002708F4002608F300080075
:04400E00D4E0FFFFFC
:00000001FF
