:020000040000FA
:060000000A128A110E280D
:10000800FE00030E83120313A4000A08A5000A12B7
:100018008A15EC2C0A128A1111288313A030840047
:10002800B8300A128A156B220A128A1183010A1241
:100038008A111E280A128A15B1220A128A11013061
:100048000A128A15F6230A128A110A128A159923A6
:100058000A128A110A128A1573220A128A110830A2
:100068000A128A156D240A128A1101300A128A1599
:10007800E2220A128A110A128A1565220A128A11C4
:10008800831203139F1849284A284B289F14A90153
:10009800A90A01300A128A15C4220A128A110A1200
:1000A8008A11E5270A128A1101300A128A11BC271F
:1000B8000A128A110A128A11E5270A128A110630D1
:1000C80083120313E9006908A90001300A128A158E
:1000D800C4220A128A110A128A11E5270A128A1101
:1000E80005300A128A11BC270A128A110A128A11CB
:1000F800E5270A128A110B3083120313E9006908F5
:10010800A90001300A128A15C4220A128A110A1299
:100118008A11E5270A128A1109300A128A11BC27A6
:100128000A128A110A128A11E5270A128A11831201
:100138000313A901A90A02300A128A15C4220A1255
:100148008A110A128A11E5270A128A1183160313E3
:10015800270883120313B600831603132608831295
:100168000313B50083160313250883120313B40081
:1001780083160313240883120313B3004030B2001C
:10018800A030B1000030B0000030AF000A128A1170
:10019800A1230A128A11831203133208D0003108EE
:1001A800CF003008CE002F08CD004330CC007F3080
:1001B800CB000030CA000030C9000A128A15232675
:1001C8000A128A11831203134C0883160313C00002
:1001D800831203134B0883160313BF008312031300
:1001E8004A0883160313BE008312031349088316B3
:1001F8000313BD00400883120313B60083160313CC
:100208003F0883120313B500831603133E088312B5
:100218000313B400831603133D0883120313B300BA
:100228004230B200C830B1000030B0000030AF003A
:100238000A128A11A1230A128A118312031332089F
:10024800E6003108E5003008E4002F08E3000A1250
:100258008A1587250A128A118312031364088316E4
:100268000313B70083120313630883160313B6003E
:10027800643083120313A6000030A700831603130B
:10028800370883120313A900831603133608831251
:100298000313A8000A128A1553230A128A1183121B
:1002A8000313270883160313AF00831203132608CA
:1002B80083160313AE002F0883120313A7008316B7
:1002C80003132E0883120313A6009C30A800FF30E6
:1002D800A9000A128A1503230A128A118316031326
:1002E800360883120313260783160313B60037084C
:1002F8000318370A83120313270783160313B7005B
:100308000A3083120313A6000030A70083160313D4
:10031800370883120313A9008316031336088312C0
:100328000313A8000A128A1553230A128A1183128A
:100338000313270883160313B10083120313260837
:1003480083160313B000310883120313A700831622
:100358000313300883120313A600F630A800FF30F9
:10036800A9000A128A1503230A128A118316031395
:10037800360883120313260783160313B6003708BB
:100388000318370A83120313270783160313B700CA
:100398003708B3003608B2002F0883120313AB00E6
:1003A800831603132E0883120313AA000A128A1550
:1003B80090220A128A110A128A11E5270A128A1152
:1003C8000D300A128A11BC270A128A110A128A11E0
:1003D800E5270A128A1183160313310883120313BF
:1003E800AB0083160313300883120313AA000A1202
:1003F8008A1590220A128A110A128A11E5270A120E
:100408008A1183160313330883120313AB00831670
:100418000313320883120313AA000A128A159022C2
:100428000A128A110A128A11E5270A128A1106305D
:1004380083120313E9006908A90002300A128A1519
:10044800C4220A128A110A128A11E5270A128A118D
:1004580083160313230883120313B60083160313AA
:10046800220883120313B50083160313210883128D
:100478000313B40083160313200883120313B30075
:100488004030B200A030B1000030B0000030AF0002
:100498000A128A11A1230A128A118312031332083D
:1004A800D0003108CF003008CE002F08CD004330EF
:1004B800CC007F30CB000030CA000030C9000A12DF
:1004C8008A1523260A128A11831203134C088316ED
:1004D8000313C000831203134B0883160313BF00D2
:1004E800831203134A0883160313BE0083120313EF
:1004F800490883160313BD00400883120313B6008E
:10050800831603133F0883120313B50083160313DE
:100518003E0883120313B400831603133D088312A5
:100528000313B3004230B200C830B1000030B0004D
:100538000030AF000A128A11A1230A128A1183120D
:1005480003133208E6003108E5003008E4002F08FC
:10055800E3000A128A1587250A128A1183120313E7
:10056800640883160313B500831203136308831604
:100578000313B400643083120313A6000030A700ED
:1005880083160313350883120313A9008316031374
:10059800340883120313A8000A128A1553230A1277
:1005A8008A1183120313270883160313A9008312E1
:1005B8000313260883160313A800290883120313BC
:1005C800A70083160313280883120313A6009C3080
:1005D800A800FF30A9000A128A1503230A128A11FB
:1005E8008316031334088312031326078316031391
:1005F800B40035080318350A831203132707831636
:100608000313B5000A3083120313A6000030A700B5
:1006180083160313350883120313A90083160313E3
:10062800340883120313A8000A128A1553230A12E6
:100638008A1183120313270883160313AB0083124E
:100648000313260883160313AA002B088312031327
:10065800A700831603132A0883120313A600F63093
:10066800A800FF30A9000A128A1503230A128A116A
:100678008316031334088312031326078316031300
:10068800B40035080318350A8312031327078316A5
:100698000313B5003508AD003408AC0029088312EF
:1006A8000313AB0083160313280883120313AA004D
:1006B8000A128A1590220A128A110A128A11E5274B
:1006C8000A128A110D300A128A11BC270A128A11DD
:1006D8000A128A11E5270A128A11831603132B08B6
:1006E80083120313AB00831603132A088312031320
:1006F800AA000A128A1590220A128A110A128A116D
:10070800E5270A128A11831603132D08831203138F
:10071800AB00831603132C0883120313AA000A12D2
:100728008A1590220A128A110A128A11E5270A12DA
:100738008A1144280A128A110E28831203133208D8
:100748008039B7003708BC003208B7003707B8004F
:100758003808C200B11FB12BB22BB32B4214420888
:100768000319B72BB82BC72B420A031DBC2BBD2B73
:10077800C52B0030B2000030B1000030B0000030AE
:10078800AF00B117CF2B0030B2000030B1000030FD
:10079800B0000030AF0036088039B7003708BC0613
:1007A8003608B7003707B8003808C100B51FDD2B79
:1007B800DE2BDF2B411441080319E32BE42BF32B29
:1007C800410A031DE82BE92BF12B0030B60000305D
:1007D800B5000030B4000030B300B517FB2B003073
:1007E800B6000030B5000030B4000030B300410856
:1007F8000319FF2B002C052C4208031D042C052C83
:100808000E2C0030B2000030B1000030B0000030D3
:10081800AF00012F2F08B7003708A60035080A12C5
:100828008A152A230A128A11831203132708C8007B
:100838002608C7004708B700B801B901BA013A0845
:10084800C0003908BF003808BE003708BD00480896
:10085800B700B801B901BA013A08C6003908C5009D
:100868003808C4003708C3003008B7003708A600A6
:1008780034080A128A152A230A128A1183120313CA
:100888002708C8002608C7004708B700B801B901FB
:10089800BA013708BD07380803110318013E0319C8
:1008A800562CBE07390803110318013E03195D2CA5
:1008B800BF073A0803110318013E0319642CC00747
:1008C8004808B700B801B901BA013708C3073808A2
:1008D80003110318013E0319722CC40739080311C8
:1008E8000318013E0319792CC5073A0803110318A8
:1008F800013E0319802CC6073108B7003708A60047
:1009080033080A128A152A230A128A11831203133A
:100918002708C8002608C7004708B700B801B9016A
:10092800BA013708BD07380803110318013E031937
:100938009E2CBE07390803110318013E0319A52C84
:10094800BF073A0803110318013E0319AC2CC0076E
:100958004808B700B801B901BA013708C307380811
:1009680003110318013E0319BA2CC40739080311EF
:100978000318013E0319C12CC5073A0803110318CF
:10098800013E0319C82CC6070830B7000310BD0D77
:10099800BE0DBF0DC00DB70BCA2C3008B700370805
:1009A800A60033080A128A152A230A128A1183120A
:1009B80003132708C8002608C7004708B7004808D7
:1009C800B800B901BA013708BD0738080311031880
:1009D800013E0319F02CBE07390803110318013E24
:1009E8000319F72CBF073A0803110318013E03192E
:1009F800FE2CC0072F08B7003708A60034080A12D3
:100A08008A152A230A128A11831203132708C80099
:100A18002608C7004708B7004808B800B901BA0156
:100A28003708BD07380803110318013E03191D2DA7
:100A3800BE07390803110318013E0319242DBF0707
:100A48003A0803110318013E03192B2DC00708307B
:100A5800B7000310BD0DBE0DBF0DC00DB70B2D2D7A
:100A68002F08B7003708A60033080A128A152A2368
:100A78000A128A11831203132708C8002608C70020
:100A88004708B7004808B800B901BA013708BD07D8
:100A9800380803110318013E0319532DBE073908FE
:100AA80003110318013E03195A2DBF073A08031111
:100AB8000318013E0319612DC0073008B700370835
:100AC800A60035080A128A152A230A128A118312E7
:100AD80003132708C8002608C7004708B7004808B6
:100AE800B800B901BA013708C30738080311031859
:100AF800013E0319802DC407390803110318013E6C
:100B08000319872DC5073A0803110318013E031975
:100B18008E2DC6073108B7003708A60034080A1218
:100B28008A152A230A128A11831203132708C80078
:100B38002608C7004708B7004808B800B901BA0135
:100B48003708C307380803110318013E0319AD2DF0
:100B5800C407390803110318013E0319B42DC5074A
:100B68003A0803110318013E0319BB2DC6073108C3
:100B7800B7003708A60035080A128A152A230A1270
:100B88008A11831203132708C8002608C7004708DC
:100B9800B7004808B800B901BA0108300310B70D0A
:100BA800B80DB90DBA0DFF3E031DD22D3708C30786
:100BB800380803110318013E0319E32DC407390847
:100BC80003110318013E0319EA2DC5073A0803115A
:100BD8000318013E0319F12DC6073D08B7003E086A
:100BE800B8003F08B9004008BA0018300310BA0C22
:100BF800B90CB80CB70CFF3E031DFA2D3708C30714
:100C0800380803110318013E03190B2EC4073908CD
:100C180003110318013E0319122EC5073A080311E0
:100C28000318013E0319192EC6070830B700031030
:100C3800BD0DBE0DBF0DC00DB70B1B2E42084107E1
:100C4800B700B801B80D3708823EC7003808031846
:100C5800013EFF3EC8004D2E0130B7000310C30D02
:100C6800C40DC50DC60DB70B322EC01F3C2E3D2E30
:100C78003E2E43140130B7000310BD0DBE0DBF0D4D
:100C8800C00DB70B402EFF30C7070318C80AFF3046
:100C9800C807C51F502E512E302EC101C01F552E1A
:100CA800562E722EFF303D05B700FF303E05B800C6
:100CB800FF303F05B9007F304005BA003A083904D3
:100CC800380437040319692E6A2E6D2EC101C10A32
:100CD800722E431C702E712E722E6A2E4108031933
:100CE800762E772EA82E0130C30700300318013066
:100CF800C407003003180130C5070030031801305D
:100D0800C607461C882E892EA82E4308B70044081B
:100D1800B8004508B9004608BA000130BB003A0DD2
:100D2800BA0CB90CB80CB70CBB0B932E3A08C6001A
:100D38003908C5003808C4003708C3000130C707A0
:100D48000318C80A0030C8074808803AFF008030F6
:100D58007F02031DB12EFF304702031CB42EB52EAF
:100D6800C02E7F3083120313C6008030C5000030C8
:100D7800C4000030C300F52E831203134808803ADC
:100D8800FF0080307F02031DCB2E0130470203187D
:100D9800CE2ECF2EDB2E003083120313C600003078
:100DA800C5000030C4000030C300BC01F52E83121A
:100DB80003134708B7003708C200FF30C305FF30E8
:100DC800C4057F30C5050030C605421CEC2EED2E4B
:100DD800EE2EC5174208B7000310370CB8003808C4
:100DE800C6003C08B7003708C6044608B2004508E4
:100DF800B1004408B0004308AF000800F8007808C4
:100E08000319072F082F1C2FF31F0B2F0C2F1C2F34
:100E18007009FA007109FB007209FC007309FD00F2
:100E2800FA0A0319FB0A0319FC0A0319FD0A242FFD
:100E38007308FD007208FC007108FB007008FA00D6
:100E48007308720471047004031D2B2F2C2F352F87
:100E58000030F3000030F2000030F1000030F00004
:100E6800BB2F9630F4007408F900472F0130F400C6
:100E78007408F90701300310FD0CFC0CFB0CFA0C8C
:100E8800FF3E031D3F2FFE307D05031D4C2F4D2FC8
:100E98003A2F692F0130F4007408F9070130FA0776
:100EA800003003180130FB07003003180130FC073D
:100EB800003003180130FD0701300310FD0CFC0C55
:100EC800FB0CFA0CFF3E031D612FFF307D05031D4F
:100ED8006E2F6F2F4E2F7B2F0130F9020130F40057
:100EE8000310FA0DFB0DFC0DFD0DF40B742FFC1B0C
:100EF8007E2F7F2F852F023079020318842F852FAC
:100F0800702F7918882F892F912FFF30FA05FF301D
:100F1800FB057F30FC05FF30FD050310F90C79084F
:100F2800F400F501F601F70118300310F40DF50D82
:100F3800F60DF70DFF3E031D992F7408FA04750886
:100F4800FB047608FC047708FD0478080319AD2F24
:100F5800AE2FB32FF31FB12FB22FB32FFD177D087C
:100F6800F3007C08F2007B08F1007A08F000080022
:100F780083120313AC00D82F2C0884000A128A1598
:100F880000200A128A11AA00AB012A08A8002B081F
:100F9800A9000A128A1580220A128A1101308312C6
:100FA8000313AA002A08AC072C0884000A128A1521
:100FB80000200A128A11003A031DE32FE42FC02FE4
:100FC800080083120313A601A7010130831203133B
:100FD800A6070318A70A0030A7072708803AFF00CA
:100FE80080307F02031DFA2F32302602031CFD2FAA
:060FF800FE2FE92F0800A6
:1010000008308A000408840A8207003453343134DB
:101010003A340034533432343A34003453343334B1
:081020003A3400342E34003490
:1014CA008B170B17831603130C170800640080018F
:1014DA00840A04060319003404066C2A83120313CF
:1014EA001F14831603139F139F121F120C178312C4
:1014FA0003130C130800831203132808850007142A
:10150A00871007150A128A11E5270A128A1583120B
:10151A00031307110800831203132A08303EA80098
:10152A002B080318013E003EA9000A128A158022E0
:10153A000A128A15080083120313A80028088500D6
:10154A000710871007150A128A11E5270A128A1549
:10155A008312031307110800831603138501FF3052
:10156A0086008701880183160317880189160914E2
:10157A0083120313850186018701880108008312FB
:10158A000313AA002A03031DCB2ACC2AD42A29082A
:10159A00803E0A128A15A0220A128A15E12A02300E
:1015AA002A06031DD92ADA2AE12A2908C03E0A1284
:1015BA008A15A0220A128A15080083120313A800AA
:1015CA00EF2A9F131F13022B9F131F17022B9F171C
:1015DA001F13022B2808A600A7012708003A03199F
:1015EA00F72A022B2608003A0319E62A013A0319B8
:1015FA00E92A023A0319EC2A022B08008312031380
:10160A00AA01AB01261C0A2B0B2B112B2808AA07AF
:10161A000318AB0A2908AB0701300310A80DA90D5E
:10162A00FF3E031D122B01300310A70CA60CFF3E30
:10163A00031D192B26082704031D242B252B072BF2
:10164A002B08A7002A08A600080083120313AE007D
:10165A00AA01AB012608A800A9012808AC0029089C
:10166A00AD002E1C392B3A2B402B2C08AA07031845
:10167A00AB0A2D08AB0701300310AC0DAD0DFF3ED0
:10168A00031D412B0310AE0C2E08031D4D2B4E2BB0
:10169A00362B2B08A7002A08A6000800831203137A
:1016AA00AB01AC012608270403195C2B5D2B942B94
:1016BA00AD01AD0A6B2B01300310A60DA70DFF3E3D
:1016CA00031D612B0130AA002A08AD07A71F6E2B44
:1016DA006F2B602B01300310AB0DAC0DFF3E031DC9
:1016EA00702B27082902031D7C2B26082802031CBD
:1016FA007F2B802B872B2608A8022708031CA90307
:10170A00A9022B1401300310A70CA60CFF3E031DDF
:10171A00882B0130AD02031D932B942B6F2B2C08C1
:10172A00A7002B08A60008001A3083120313AA0088
:10173A00F730A900A90B9F2BAA0B9F2BA42B3030A3
:10174A000A128A15A0220A128A1507308312031375
:10175A00AA007C30A900A90BB02BAA0BB02B000061
:10176A0030300A128A15A0220A128A15C73083124B
:10177A000313A900C02BA90BBF2BC32B30300A12AD
:10178A008A15A0220A128A15C73083120313A900E8
:10179A00CE2BA90BCD2BD12B38300A128A15A022B9
:1017AA000A128A1510300A128A15A0220A128A15FC
:1017BA0001300A128A15A0220A128A1506300A1264
:1017CA008A15A0220A128A150C300A128A15A0223A
:1017DA000A128A1580300A128A15A0220A128A155C
:1017EA00080083120313A8004A2C831603130F1749
:1017FA008F160F168F110F158F100F146C2C83165E
:10180A0003130F178F160F128F110F158F100F1446
:10181A006C2C831603130F178F120F168F110F15C7
:10182A008F100F146C2C831603130F178F120F12BD
:10183A008F110F158F100F146C2C831603130F13AF
:10184A008F160F168F110F158F100F146C2C83160D
:10185A0003130F138F160F128F110F158F100F14FA
:10186A006C2C831603130F138F120F168F110F157B
:10187A008F100F146C2C831603130F138F120F1271
:10188A008F110F118F140F146C2C2808A600A701B2
:10189A002708003A0319522C6C2C2608003A03191F
:1018AA00FA2B013A0319042C033A03190E2C013AB4
:1018BA000319182C073A0319222C013A03192C2C64
:1018CA00033A0319362C013A0319402C6C2C0800F0
:1018DA0083120313A800B72C9F121F129F111F1106
:1018EA00EB2C9F121F129F111F15EB2C9F121F1218
:1018FA009F151F11EB2C9F121F129F151F15EB2C02
:10190A009F121F169F111F11EB2C9F121F169F115A
:10191A001F15EB2C9F121F169F151F11EB2C9F12E0
:10192A001F169F151F15EB2C9F161F129F111F11B3
:10193A00EB2C9F161F129F111F15EB2C9F161F12BF
:10194A009F151F11EB2C9F161F129F151F15EB2CAD
:10195A009F161F169F111F11EB2C9F161F169F1102
:10196A001F15EB2C2808A600A7012708003A03191F
:10197A00BF2CEB2C2608003A0319712C013A0319E3
:10198A00762C033A03197B2C013A0319802C073A67
:10199A000319852C013A03198A2C033A03198F2C4F
:1019AA00013A0319942C0F3A0319992C013A031995
:1019BA009E2C033A0319A32C013A0319A82C073ABF
:1019CA000319AD2C013A0319B22CEB2C08008B1326
:1019DA000C1FF02CF12C222D9F1EF42CF52C222DFD
:1019EA001F1AF82CF92C222D9F19FC2CFD2C222DC4
:1019FA001F19002D012D222D1E08A000A101A201F0
:101A0A00A3012308F3002208F2002108F1002008AC
:101A1A00F00000300A128A1102270A128A15730886
:101A2A0083160313A7007208A6007108A5007008A0
:101A3A00A400831203130C13562D0C1F252D262DDB
:101A4A00562D9F1E292D2A2D562D1F1E2D2D2E2D2A
:101A5A00562D9F19312D322D562D1F1D352D362D00
:101A6A00562D1E08A000A101A201A3012308F3001C
:101A7A002208F2002108F1002008F00000300A12C2
:101A8A008A1102270A128A15730883160313A30000
:101A9A007208A2007108A1007008A0008312031343
:101AAA000C139F1E592D5A2D6B2D1F1A5D2D5E2D5D
:101ABA006B2D9F19612D622D6B2D1F19652D662DBA
:101ACA006B2D9F161F169F111F157F2D9F1E6E2DA2
:101ADA006F2D7F2D1F1E722D732D7F2D9F19762D31
:101AEA00772D7F2D1F1D7A2D7B2D7F2D9F161F127F
:101AFA009F111F118B1725088A00240E8300FE0EE2
:101B0A007E0E0900031083120313650D660D8316FA
:101B1A000313B800380883120313E8006808031D8A
:101B2A00972D982DA12D0030E6000030E5000030F9
:101B3A00E4000030E300222E630883160313B80082
:101B4A0083120313640883160313B9008312031361
:101B5A00650883160313BA008312031366088316F3
:101B6A000313BB001F300310BB0CBA0CB90CB80C22
:101B7A00FF3E031DB82D3808BC003C08831203132E
:101B8A00E700E517FF30E305FF30E405FF30E50520
:101B9A000030E6059630E802E81FD42DD52DF32D46
:101BAA006808803A973E0318DB2DDC2DDD2D982D31
:101BBA0001300310E60CE50CE40CE30CFF3E031DB8
:101BCA00DE2D013083160313B8003808831203137D
:101BDA00E807031DF12DF22DDD2D122E20306802AB
:101BEA00031CF82DF92D0D2E982D013083160313A1
:101BFA00B800031083120313E30DE40DE50DE60D9F
:101C0A0083160313B80BFE2D013083120313E80267
:101C1A006808031D112E122EFA2D67080319162EB5
:101C2A00172E222EE309E409E509E609E30A031956
:101C3A00E40A0319E50A0319E60A080083120313E2
:101C4A0050088039D1005108DA005008D1005107F4
:101C5A00D2005208E100CF1F332E342E352E6114E4
:101C6A0061080319392E3A2E4A2E610A031D3E2EA7
:101C7A003F2E472E0030D0000030CF000030CE007B
:101C8A000030CD00CF17D001522E0030D0000030E6
:101C9A00CF000030CE000030CD004C088039D10092
:101CAA005108DA064C08D1005107D2005208E20066
:101CBA00CB1F602E612E622E621462080319662EF3
:101CCA00672E772E620A031D6B2E6C2E742E00303F
:101CDA00CC000030CB000030CA000030C900CB175E
:101CEA00CC017F2E0030CC000030CB000030CA007F
:101CFA000030C9004C084B044A044904031D862ECF
:101D0A00872EA02E0030D0000030CF000030CE0049
:101D1A000030CD008030CF047F30D0045A08D10083
:101D2A005108D0045008CC004F08CB004E08CA0016
:101D3A004D08C900FF2F6108031DA42EA52EAE2E43
:101D4A000030CC000030CB000030CA000030C9009F
:101D5A00FF2F6108D100D2015208D4006208510253
:101D6A00D300031CD40353087F3EDB005408031836
:101D7A00013E003EDC005008D9004F08D8004E084A
:101D8A00D7004D08D6000030D0000030CF00003018
:101D9A00CE000030CD000030E0000030DF0000301F
:101DAA00DE000030DD00E201242F62080319DE2E76
:101DBA00DF2EFF2E0130D1000310D60DD70DD80D1E
:101DCA00D90DD10BE12E0130D1000310CD0DCE0D6E
:101DDA00CF0DD00DD10BEA2EE01FF42EF52EF62EE4
:101DEA004D140130D1000310DD0DDE0DDF0DE00DC5
:101DFA00D10BF82E4C085902031D0D2F4B0858021F
:101E0A00031D0D2F4A085702031D0D2F49085602BC
:101E1A00031C102F112F202F60174908D6024A08D9
:101E2A00031C4A0FD7024B08031C4B0FD8024C085D
:101E3A00031C4C0FD9020130D1005108E2071A30B5
:101E4A006202031C292F2A2FDA2E59085804570434
:101E5A0056040319312F322F512F5D14512F01309F
:101E6A00D1000310CD0DCE0DCF0DD00DD10B362FD5
:101E7A00E01F402F412F422F4D140130D100031093
:101E8A00DD0DDE0DDF0DE00DD10B442FFF30DB073A
:101E9A000318DC0AFF30DC07CF1F542F552F342FCD
:101EAA00E201E01F592F5A2F762FFF305D05D1002E
:101EBA00FF305E05D200FF305F05D3007F3060053A
:101ECA00D400540853045204510403196D2F6E2F81
:101EDA00712FE201E20A762F4D1C742F752F762F8F
:101EEA006E2F620803197A2F7B2FAC2F0130CD0792
:101EFA00003003180130CE07003003180130CF0735
:101F0A00003003180130D007501C8C2F8D2FAC2FB6
:101F1A004D08D1004E08D2004F08D3005008D40013
:101F2A000130D500540DD40CD30CD20CD10CD50BE6
:101F3A00972F5408D0005308CF005208CE005108FA
:101F4A00CD000130DB070318DC0A0030DC075C082F
:101F5A00803AFF0080307F02031DB52FFF305B02FD
:101F6A00031CB82FB92FC72FFF3083120313DB00CE
:101F7A000030DC000030D0000030CF000030CE004E
:101F8A000030CD00831203135C08803AFF008030D2
:101F9A007F02031DD22F01305B020318D52FD62FE3
:101FAA00E32F83120313DB01DC010030D000003081
:101FBA00CF000030CE000030CD00DA0183120313C7
:101FCA005B08D1005108E100611CEC2FED2FEF2FC7
:101FDA00CF17F32F7F30D1005108CF056108D10008
:101FEA000310510CD2005208D0005A08D1005108EF
:061FFA00D004972E080040
:04400E00D4E0FFFFFC
:00000001FF
