:020000040000FA
:060000000A128A110C280F
:10000800FE00030EF0000A08F1000A128A111029F6
:100018000A128A110F2883010A128A1169281A30D4
:10002800F600F830F500F50B1728F60B1728000036
:1000380030300A128A11EE200A128A110730F600AF
:100048007D30F500F50B2628F60B262830300A12ED
:100058008A11EE200A128A11C730F5003328F50BF1
:1000680032283628372830300A128A11EE200A1230
:100078008A11C730F5004028F50B3F28432844284B
:1000880038300A128A11EE200A128A1110300A1228
:100098008A11EE200A128A1101300A128A11EE2002
:1000A8000A128A1106300A128A11EE200A128A11DF
:1000B8000C300A128A11EE200A128A1180300A12B4
:1000C8008A11EE200A128A1108000A128A11DC200D
:1000D8000A128A110A128A1113200A128A1101308F
:1000E8000A128A1189200A128A11C0300A128A114A
:1000F800EE200A128A110F300A128A1189200A1278
:100108008A1185280A128A110C28F6009B2876087D
:1001180084000A128A11A8200A128A110A128A1166
:10012800FF200A128A110130F5007508F6077608D3
:1001380084000A128A11A8200A128A11003A031DA3
:10014800A628A7288B28080000308A000408840AFB
:1001580082070034503449344E34433448344534EB
:10016800203450344934523455344A3441340034FC
:100178004334483449344E34473455344534533481
:1001880045340034F201F3010130F2070318F30A91
:100198000030F3077308803AFF0080307F02031DA8
:1001A800D72832307202031CDA28DB28C828080056
:1001B800831603138501FF308600870188018316A3
:1001C800031788018916091483120313850187010F
:1001D80088010800F40074088312031385000710CF
:1001E800871007150A128A11C6200A128A1183126B
:1001F800031307110800F400740883120313850021
:100208000714871007150A128A11C6200A128A11C4
:10021800831203130711080071088A00700E830007
:06022800FE0E7E0E09002F
:04400E00D4E0FFFFFC
:00000001FF
