:020000040000FA
:060000000A128A110E280D
:10000800FE00030E83120313A4000A08A5000A12B7
:100018008A15EC2C0A128A11112883120313E9019C
:100028008313A0308400BA300A128A153B220A12C0
:100038008A1183010A128A1121280A128A11ED27CE
:100048000A128A1101300A128A15F6230A128A1135
:100058000A128A1599230A128A110A128A1543224A
:100068000A128A1108300A128A156D240A128A1196
:1000780001300A128A15B9220A128A110A128A153F
:1000880033220A128A11831203139F184C284D2811
:100098004E289F14A901A90A01300A128A159B2229
:1000A8000A128A110A128A1581220A128A1101304B
:1000B8000A128A152A230A128A110A128A1581221B
:1000C8000A128A11063083160313BF003F088312F1
:1000D8000313A90001300A128A159B220A128A11F9
:1000E8000A128A1581220A128A1105300A128A1503
:1000F8002A230A128A110A128A1581220A128A11DF
:100108000B3083160313BF003F0883120313A900A3
:1001180001300A128A159B220A128A110A128A15BC
:1001280081220A128A1109300A128A152A230A1210
:100138008A110A128A1581220A128A11831203135C
:10014800A901A90A02300A128A159B220A128A11E9
:100158000A128A1581220A128A11831603132708A4
:1001680083120313B600831603132608831203139E
:10017800B50083160313250883120313B4008316EE
:100188000313240883120313B3004030B200A030D5
:10019800B1000030B0000030AF000A128A11D2233B
:1001A8000A128A11831203133208D0003108CF00D3
:1001B8003008CE002F08CD004330CC007F30CB0074
:1001C8000030CA000030C9000A128A1523260A1214
:1001D8008A11831203134C0883160313C300831276
:1001E80003134B0883160313C200831203134A0830
:1001F80083160313C10083120313490883160313DC
:10020800C000430883120313B60083160313420881
:1002180083120313B50083160313410883120313D3
:10022800B40083160313400883120313B30042304B
:10023800B200C830B1000030B0000030AF000A1280
:100248008A11D2230A128A11831203133208E60094
:100258003108E5003008E4002F08E3000A128A1587
:1002680087250A128A11831203136408831603135D
:10027800B70083120313630883160313B6006430B0
:1002880083120313A6000030A70083160313370850
:1002980083120313A900831603133608831203136A
:1002A800A8000A128A1553230A128A11831203130B
:1002B800270883160313AF00831203132608831637
:1002C8000313AE002F0883120313A700831603132A
:1002D8002E0883120313A6009C30A800FF30A90043
:1002E8000A128A15DA220A128A11831603133608AB
:1002F80083120313260783160313B600370803185F
:10030800370A83120313270783160313B7000A302B
:1003180083120313A6000030A700831603133708BF
:1003280083120313A90083160313360883120313D9
:10033800A8000A128A1553230A128A11831203137A
:10034800270883160313B1008312031326088316A4
:100358000313B000310883120313A7008316031395
:10036800300883120313A600F630A800FF30A90056
:100378000A128A15DA220A128A118316031336081A
:1003880083120313260783160313B60037080318CE
:10039800370A83120313270783160313B700370896
:1003A800B3003608B2002F0883120313AB0083167C
:1003B80003132E0883120313AA000A128A15602257
:1003C8000A128A110A128A1581220A128A110D301C
:1003D8000A128A152A230A128A110A128A158122F8
:1003E8000A128A1183160313310883120313AB0010
:1003F80083160313300883120313AA000A128A15FE
:1004080060220A128A110A128A1581220A128A1196
:1004180083160313330883120313AB0083160313E5
:10042800320883120313AA000A128A1560220A12DC
:100438008A110A128A1581220A128A110630831635
:100448000313BF003F0883120313A90002300A12E6
:100458008A159B220A128A110A128A1581220A1207
:100468008A1183160313230883120313B600831615
:100478000313220883120313B500831603132108FC
:1004880083120313B4008316031320088312031383
:10049800B3004030B200A030B1000030B0000030EE
:1004A800AF000A128A11D2230A128A118312031387
:1004B8003208D0003108CF003008CE002F08CD0018
:1004C8004330CC007F30CB000030CA000030C90078
:1004D8000A128A1523260A128A11831203134C085A
:1004E80083160313C300831203134B0883160313E5
:1004F800C200831203134A0883160313C100831230
:100508000313490883160313C00043088312031317
:10051800B60083160313420883120313B50083162B
:100528000313410883120313B4008316031340080E
:1005380083120313B3004230B200C830B100003058
:10054800B0000030AF000A128A11D2230A128A11B1
:10055800831203133208E6003108E5003008E4008E
:100568002F08E3000A128A1587250A128A118312B6
:100578000313640883160313B50083120313630877
:1005880083160313B400643083120313A6000030EB
:10059800A70083160313350883120313A9008316D3
:1005A8000313340883120313A8000A128A1553236D
:1005B8000A128A1183120313270883160313A9004A
:1005C80083120313260883160313A800290883122D
:1005D8000313A70083160313280883120313A60026
:1005E8009C30A800FF30A9000A128A15DA220A12E4
:1005F8008A118316031334088312031326078316FC
:100608000313B40035080318350A831203132707A8
:1006180083160313B5000A3083120313A6000030B3
:10062800A70083160313350883120313A900831642
:100638000313340883120313A8000A128A155323DC
:100648000A128A1183120313270883160313AB00B7
:1006580083120313260883160313AA002B08831298
:100668000313A700831603132A0883120313A60093
:10067800F630A800FF30A9000A128A15DA220A12F9
:100688008A1183160313340883120313260783166B
:100698000313B40035080318350A83120313270718
:1006A80083160313B5003508AD003408AC002908DB
:1006B80083120313AB008316031328088312031352
:1006C800AA000A128A1560220A128A110A128A15C9
:1006D80081220A128A110D300A128A152A230A1257
:1006E8008A110A128A1581220A128A1183160313A3
:1006F8002B0883120313AB00831603132A088312F3
:100708000313AA000A128A1560220A128A110A1211
:100718008A1581220A128A11831603132D0883125F
:100728000313AB00831603132C0883120313AA00C8
:100738000A128A1560220A128A110A128A1581225F
:100748000A128A11831203138C1EAB2BAC2B472879
:100758001A0883160313BF003F08B8000B30BF0008
:100768003F0883120313A90002300A128A159B223C
:100778000A128A110A128A1581220A128A1183160C
:1007880003133803031DC92BCA2B47283908BF0098
:100798003F08B90747280A128A110E288312031343
:1007A80032088039B7003708BC003208B70037076D
:1007B800B8003808C200B11FE22BE32BE42B421427
:1007C80042080319E82BE92BF82B420A031DED2BED
:1007D800EE2BF62B0030B2000030B1000030B00034
:1007E8000030AF00B117002C0030B2000030B1006B
:1007F8000030B0000030AF0036088039B700370845
:10080800BC063608B7003707B8003808C100B51F5E
:100818000E2C0F2C102C411441080319142C152CE4
:10082800242C410A031D192C1A2C222C0030B60046
:100838000030B5000030B4000030B300B5172C2CE0
:100848000030B6000030B5000030B4000030B3000E
:1008580041080319302C312C362C4208031D352C45
:10086800362C3F2C0030B2000030B1000030B00010
:100878000030AF00322F2F08B7003708A600350820
:100888000A128A1501230A128A11831203132708F0
:10089800C8002608C7004708B700B801B901BA015F
:1008A8003A08C0003908BF003808BE003708BD0044
:1008B8004808B700B801B901BA013A08C6003908B2
:1008C800C5003808C4003708C3003008B700370827
:1008D800A60034080A128A1501230A128A11831203
:1008E80003132708C8002608C7004708B700B8013F
:1008F800B901BA013708BD07380803110318013ECA
:100908000319872CBE07390803110318013E031980
:100918008E2CBF073A0803110318013E0319952CC2
:10092800C0074808B700B801B901BA013708C307BA
:10093800380803110318013E0319A32CC40739080A
:1009480003110318013E0319AA2CC5073A0803111D
:100958000318013E0319B12CC6073108B700370840
:10096800A60033080A128A1501230A128A11831273
:1009780003132708C8002608C7004708B700B801AE
:10098800B901BA013708BD07380803110318013E39
:100998000319CF2CBE07390803110318013E0319A8
:1009A800D62CBF073A0803110318013E0319DD2CA2
:1009B800C0074808B700B801B901BA013708C3072A
:1009C800380803110318013E0319EB2CC407390832
:1009D80003110318013E0319F22CC5073A08031145
:1009E8000318013E0319F92CC6070830B700031095
:1009F800BD0DBE0DBF0DC00DB70BFB2C3008B700E9
:100A08003708A60033080A128A1501230A128A1128
:100A1800831203132708C8002608C7004708B70031
:100A28004808B800B901BA013708BD0738080311EA
:100A38000318013E0319212DBE07390803110318B5
:100A4800013E0319282DBF073A0803110318013E78
:100A580003192F2DC0072F08B7003708A600340840
:100A68000A128A1501230A128A118312031327080E
:100A7800C8002608C7004708B7004808B800B901E9
:100A8800BA013708BD07380803110318013E0319D6
:100A98004E2DBE07390803110318013E0319552DC1
:100AA800BF073A0803110318013E03195C2DC0075C
:100AB8000830B7000310BD0DBE0DBF0DC00DB70B3C
:100AC8005E2D2F08B7003708A60033080A128A15CA
:100AD80001230A128A11831203132708C800260863
:100AE800C7004708B7004808B800B901BA01370875
:100AF800BD07380803110318013E0319842DBE07EA
:100B0800390803110318013E03198B2DBF073A0852
:100B180003110318013E0319922DC0073008B700CE
:100B28003708A60035080A128A1501230A128A1105
:100B3800831203132708C8002608C7004708B70010
:100B48004808B800B901BA013708C30738080311C3
:100B58000318013E0319B12DC407390803110318FE
:100B6800013E0319B82DC5073A0803110318013EC1
:100B78000319BF2DC6073108B7003708A600340887
:100B88000A128A1501230A128A11831203132708ED
:100B9800C8002608C7004708B7004808B800B901C8
:100BA800BA013708C307380803110318013E0319AF
:100BB800DE2DC407390803110318013E0319E52D7A
:100BC800C5073A0803110318013E0319EC2DC6079F
:100BD8003108B7003708A60035080A128A1501231C
:100BE8000A128A11831203132708C8002608C700AF
:100BF8004708B7004808B800B901BA01083003101F
:100C0800B70DB80DB90DBA0DFF3E031D032E3708F9
:100C1800C307380803110318013E0319142EC4072B
:100C2800390803110318013E03191B2EC5073A089A
:100C380003110318013E0319222EC6073D08B70009
:100C48003E08B8003F08B9004008BA001830031041
:100C5800BA0CB90CB80CB70CFF3E031D2B2E370885
:100C6800C307380803110318013E03193C2EC407B3
:100C7800390803110318013E0319432EC5073A0822
:100C880003110318013E03194A2EC6070830B7009E
:100C98000310BD0DBE0DBF0DC00DB70B4C2E420885
:100CA8004107B700B801B80D3708823EC7003808B9
:100CB8000318013EFF3EC8007E2E0130B700031026
:100CC800C30DC40DC50DC60DB70B632EC01F6D2E09
:100CD8006E2E6F2E43140130B7000310BD0DBE0DEC
:100CE800BF0DC00DB70B712EFF30C7070318C80A18
:100CF800FF30C807C51F812E822E612EC101C01F7B
:100D0800862E872EA32EFF303D05B700FF303E0507
:100D1800B800FF303F05B9007F304005BA003A08F7
:100D280039043804370403199A2E9B2E9E2EC101CC
:100D3800C10AA32E431CA12EA22EA32E9B2E41082E
:100D48000319A72EA82ED92E0130C3070030031887
:100D58000130C407003003180130C50700300318FC
:100D68000130C607461CB92EBA2ED92E4308B70043
:100D78004408B8004508B9004608BA000130BB006D
:100D88003A0DBA0CB90CB80CB70CBB0BC42E3A0808
:100D9800C6003908C5003808C4003708C300013048
:100DA800C7070318C80A0030C8074808803AFF0078
:100DB80080307F02031DE22EFF304702031CE52E20
:100DC800E62EF12E7F3083120313C6008030C50053
:100DD8000030C4000030C300262F831203134808D4
:100DE800803AFF0080307F02031DFC2E013047024D
:100DF8000318FF2E002F0C2F003083120313C60098
:100E08000030C5000030C4000030C300BC01262FEC
:100E1800831203134708B7003708C200FF30C30521
:100E2800FF30C4057F30C5050030C605421C1D2FA4
:100E38001E2F1F2FC5174208B7000310370CB80024
:100E48003808C6003C08B7003708C6044608B20090
:100E58004508B1004408B0004308AF000800F80096
:100E680078080319382F392F4D2FF31F3C2F3D2FAA
:100E78004D2F7009FA007109FB007209FC00730913
:100E8800FD00FA0A0319FB0A0319FC0A0319FD0AF3
:100E9800552F7308FD007208FC007108FB007008EC
:100EA800FA007308720471047004031D5C2F5D2F2F
:100EB800662F0030F3000030F2000030F1000030FF
:100EC800F000EC2F9630F4007408F900782F013008
:100ED800F4007408F90701300310FD0CFC0CFB0C3E
:100EE800FA0CFF3E031D702FFE307D05031D7D2F7C
:100EF8007E2F6B2F9A2F0130F4007408F907013008
:100F0800FA07003003180130FB07003003180130DE
:100F1800FC07003003180130FD0701300310FD0CF9
:100F2800FC0CFB0CFA0CFF3E031D922FFF307D05D5
:100F3800031D9F2FA02F7F2FAC2F0130F902013006
:100F4800F4000310FA0DFB0DFC0DFD0DF40BA52F9D
:100F5800FC1BAF2FB02FB62F023079020318B52F24
:100F6800B62FA12F7918B92FBA2FC22FFF30FA0543
:100F7800FF30FB057F30FC05FF30FD050310F90C41
:100F88007908F400F501F601F70118300310F40DA3
:100F9800F50DF60DF70DFF3E031DCA2F7408FA0470
:100FA8007508FB047608FC047708FD047808031923
:100FB800DE2FDF2FE42FF31FE22FE32FE42FFD179F
:100FC8007D08F3007C08F2007B08F1007A08F00045
:100FD8000800831603138501FF3086008701880106
:100FE80083160317880189160914831203138501D0
:100FF800860187018801080008308A000408840AED
:1010080082070034533431343A34003453343234A0
:101018003A340034533433343A3400342E34003400
:101466008B170B17831603130C170C128C16080018
:1014760064008001840A04060319003404063C2A29
:10148600831203131F14831603139F139F121F1235
:101496000C17831203130C13080083120313280876
:1014A60085000714871007150A128A1581220A1269
:1014B6008A158312031307110800831203132A08DF
:1014C600303EA8002B080318013E003EA9000A1270
:1014D6008A1550220A128A15080083120313A800DF
:1014E600280885000710871007150A128A15812219
:1014F6000A128A15831203130711080083120313B5
:10150600A601A701013083120313A6070318A70A31
:101516000030A7072708803AFF0080307F02031DAE
:10152600962A32302602031C992A9A2A852A08000E
:1015360083120313AA002A03031DA22AA32AAB2A95
:101546002908803E0A128A1570220A128A15B82ABC
:1015560002302A06031DB02AB12AB82A2908C03E3D
:101566000A128A1570220A128A15080083120313BA
:10157600A800C62A9F131F13D92A9F131F17D92AFB
:101586009F171F13D92A2808A600A7012708003A83
:101596000319CE2AD92A2608003A0319BD2A013A88
:1015A6000319C02A023A0319C32AD92A080083124A
:1015B6000313AA01AB01261CE12AE22AE82A28081D
:1015C600AA070318AB0A2908AB0701300310A80DB8
:1015D600A90DFF3E031DE92A01300310A70CA60C36
:1015E600FF3E031DF02A26082704031DFB2AFC2ABA
:1015F600DE2A2B08A7002A08A60008008312031378
:10160600AE00AA01AB012608A800A9012808AC0073
:101616002908AD002E1C102B112B172B2C08AA07FE
:101626000318AB0A2D08AB0701300310AC0DAD0D46
:10163600FF3E031D182B0310AE0C2E08031D242B92
:10164600252B0D2B2B08A7002A08A60008008312BD
:101656000313AC00462B2C0884000A128A150020BE
:101666000A128A15AA00AB012A08A8002B08A900AD
:101676000A128A1550220A128A15013083120313A0
:10168600AA002A08AC072C0884000A128A15002032
:101696000A128A15003A031D512B522B2E2B0800D5
:1016A60083120313AB01AC012608270403195C2B34
:1016B6005D2B942BAD01AD0A6B2B01300310A60DEB
:1016C600A70DFF3E031D612B0130AA002A08AD07B6
:1016D600A71F6E2B6F2B602B01300310AB0DAC0DCB
:1016E600FF3E031D702B27082902031D7C2B2608AD
:1016F6002802031C7F2B802B872B2608A80227088D
:10170600031CA903A9022B1401300310A70CA60C75
:10171600FF3E031D882B0130AD02031D932B942B36
:101726006F2B2C08A7002B08A60008001A3083127E
:101736000313AA00F730A900A90B9F2BAA0B9F2B16
:10174600A42B30300A128A1570220A128A15073025
:1017560083120313AA007C30A900A90BB02BAA0B95
:10176600B02B000030300A128A1570220A128A1530
:10177600C73083120313A900C02BA90BBF2BC32BA1
:1017860030300A128A1570220A128A15C73083125F
:101796000313A900CE2BA90BCD2BD12B38300A125F
:1017A6008A1570220A128A1510300A128A157022BA
:1017B6000A128A1501300A128A1570220A128A152F
:1017C60006300A128A1570220A128A150C300A127D
:1017D6008A1570220A128A1580300A128A1570221A
:1017E6000A128A15080083120313A8004A2C8316CE
:1017F60003130F178F160F168F110F158F100F1457
:101806006C2C831603130F178F160F128F110F15DB
:101816008F100F146C2C831603130F178F120F16CD
:101826008F110F158F100F146C2C831603130F17BF
:101836008F120F128F110F158F100F146C2C831629
:1018460003130F138F160F168F110F158F100F140A
:101856006C2C831603130F138F160F128F110F158F
:101866008F100F146C2C831603130F138F120F1681
:101876008F110F158F100F146C2C831603130F1373
:101886008F120F128F110F118F140F146C2C280842
:10189600A600A7012708003A0319522C6C2C26082B
:1018A600003A0319FA2B013A0319042C033A0319D7
:1018B6000E2C013A0319182C073A0319222C013A67
:1018C60003192C2C033A0319362C013A0319402C20
:1018D6006C2C080083120313A800B72C9F121F124A
:1018E6009F111F11EB2C9F121F129F111F15EB2C1E
:1018F6009F121F129F151F11EB2C9F121F129F156F
:101906001F15EB2C9F121F169F111F11EB2C9F12F8
:101916001F169F111F15EB2C9F121F169F151F11C7
:10192600EB2C9F121F169F151F15EB2C9F161F12CF
:101936009F111F11EB2C9F161F129F111F15EB2CC9
:101946009F161F129F151F11EB2C9F161F129F1516
:101956001F15EB2C9F161F169F111F11EB2C9F16A0
:101966001F169F111F15EB2C2808A600A701270894
:10197600003A0319BF2CEB2C2608003A0319712CE8
:10198600013A0319762C033A03197B2C013A031901
:10199600802C073A0319852C013A03198A2C033A3D
:1019A60003198F2C013A0319942C0F3A0319992C19
:1019B600013A03199E2C033A0319A32C013A031981
:1019C600A82C073A0319AD2C013A0319B22CEB2CBB
:1019D60008008B130C1FF02CF12C222D9F1EF42CCB
:1019E600F52C222D1F1AF82CF92C222D9F19FC2CD0
:1019F600FD2C222D1F19002D012D222D1E08A000C1
:101A0600A101A201A3012308F3002208F200210884
:101A1600F1002008F00000300A128A1133270A125A
:101A26008A15730883160313A7007208A6007108A7
:101A3600A5007008A400831203130C13562D0C1F67
:101A4600252D262D562D9F1E292D2A2D562D1F1E3E
:101A56002D2D2E2D562D9F19312D322D562D1F1D14
:101A6600352D362D562D1E08A000A101A201A30179
:101A76002308F3002208F2002108F1002008F000F4
:101A860000300A128A1133270A128A157308831640
:101A96000313A3007208A2007108A1007008A00039
:101AA600831203130C139F1E592D5A2D6B2D1F1ACB
:101AB6005D2D5E2D6B2D9F19612D622D6B2D1F19CE
:101AC600652D662D6B2D9F161F169F111F157F2DD9
:101AD6009F1E6E2D6F2D7F2D1F1E722D732D7F2D38
:101AE6009F19762D772D7F2D1F1D7A2D7B2D7F2D0E
:101AF6009F161F129F111F118B1725088A00240E8F
:101B06008300FE0E7E0E0900031083120313650D7B
:101B1600660D83160313BA003A0883120313E8000E
:101B26006808031D972D982DA12D0030E600003082
:101B3600E5000030E4000030E300222E630883163F
:101B46000313BA0083120313640883160313BB003E
:101B560083120313650883160313BC008312031351
:101B6600660883160313BD001F300310BD0CBC0CA2
:101B7600BB0CBA0CFF3E031DB82D3A08BE003E084A
:101B860083120313E700E517FF30E305FF30E40592
:101B9600FF30E5050030E6059630E802E81FD42D53
:101BA600D52DF32D6808803A973E0318DB2DDC2DE2
:101BB600DD2D982D01300310E60CE50CE40CE30C4A
:101BC600FF3E031DDE2D013083160313BA003A08CB
:101BD60083120313E807031DF12DF22DDD2D122EBE
:101BE60020306802031CF82DF92D0D2E982D01309A
:101BF60083160313BA00031083120313E30DE40DD7
:101C0600E50DE60D83160313BA0BFE2D0130831284
:101C16000313E8026808031D112E122EFA2D670819
:101C26000319162E172E222EE309E409E509E60903
:101C3600E30A0319E40A0319E50A0319E60A080088
:101C46008312031350088039D1005108DA00500876
:101C5600D1005107D2005208E100CF1F332E342E97
:101C6600352E611461080319392E3A2E4A2E610A5F
:101C7600031D3E2E3F2E472E0030D0000030CF00F1
:101C86000030CE000030CD00CF17D001522E0030EC
:101C9600D0000030CF000030CE000030CD004C0820
:101CA6008039D1005108DA064C08D1005107D2001C
:101CB6005208E200CB1F602E612E622E621462086B
:101CC6000319662E672E772E620A031D6B2E6C2E65
:101CD600742E0030CC000030CB000030CA0000303B
:101CE600C900CB17CC017F2E0030CC000030CB00D2
:101CF6000030CA000030C9004C084B044A044904AD
:101D0600031D862E872EA02E0030D0000030CF0077
:101D16000030CE000030CD008030CF047F30D004BC
:101D26005A08D1005108D0045008CC004F08CB0007
:101D36004E08CA004D08C900FF2F6108031DA42ED6
:101D4600A52EAE2E0030CC000030CB000030CA00ED
:101D56000030C900FF2F6108D100D2015208D4001B
:101D660062085102D300031CD40353087F3EDB00F4
:101D760054080318013E003EDC005008D9004F0805
:101D8600D8004E08D7004D08D6000030D0000030ED
:101D9600CF000030CE000030CD000030E000003033
:101DA600DF000030DE000030DD00E201242F620893
:101DB6000319DE2EDF2EFF2E0130D1000310D60DC3
:101DC600D70DD80DD90DD10BE12E0130D10003105E
:101DD600CD0DCE0DCF0DD00DD10BEA2EE01FF42E7A
:101DE600F52EF62E4D140130D1000310DD0DDE0D5B
:101DF600DF0DE00DD10BF82E4C085902031D0D2FF7
:101E06004B085802031D0D2F4A085702031D0D2FBC
:101E160049085602031C102F112F202F601749085E
:101E2600D6024A08031C4A0FD7024B08031C4B0F65
:101E3600D8024C08031C4C0FD9020130D1005108BE
:101E4600E2071A306202031C292F2A2FDA2E5908BC
:101E56005804570456040319312F322F512F5D149D
:101E6600512F0130D1000310CD0DCE0DCF0DD00D69
:101E7600D10B362FE01F402F412F422F4D1401303A
:101E8600D1000310DD0DDE0DDF0DE00DD10B442F6B
:101E9600FF30DB070318DC0AFF30DC07CF1F542FA7
:101EA600552F342FE201E01F592F5A2F762FFF307E
:101EB6005D05D100FF305E05D200FF305F05D3001F
:101EC6007F306005D40054085304520451040319AA
:101ED6006D2F6E2F712FE201E20A762F4D1C742FA3
:101EE600752F762F6E2F620803197A2F7B2FAC2F52
:101EF6000130CD07003003180130CE07003003183B
:101F06000130CF07003003180130D007501C8C2F4A
:101F16008D2FAC2F4D08D1004E08D2004F08D300AC
:101F26005008D4000130D500540DD40CD30CD20C7B
:101F3600D10CD50B972F5408D0005308CF00520868
:101F4600CE005108CD000130DB070318DC0A003053
:101F5600DC075C08803AFF0080307F02031DB52F46
:101F6600FF305B02031CB82FB92FC72FFF30831237
:101F76000313DB000030DC000030D0000030CF005F
:101F86000030CE000030CD00831203135C08803A87
:101F9600FF0080307F02031DD22F01305B02031841
:101FA600D52FD62FE32F83120313DB01DC0100307C
:101FB600D0000030CF000030CE000030CD00DA0176
:101FC600831203135B08D1005108E100611CEC2F5A
:101FD600ED2FEF2FCF17F32F7F30D1005108CF050C
:101FE6006108D1000310510CD2005208D0005A08E3
:0A1FF600D1005108D004972E080016
:04400E00D4E0FFFFFC
:00000001FF
