:020000040000FA
:060000000A128A110C280F
:10000800FE00030EF1000A08F2000A168A15B82C41
:100018000A128A110F2883120313EF018313CA30BF
:100028008400E7300A168A15C6200A128A1183014D
:100038000A168A15312E83160313BE006B30A800EA
:100048002808B100652E2530450603192C282D28CF
:1000580039284508A8003E08840028088313800032
:100068000130A8002808BE07652EB201B30183122B
:1000780003136A0884000A168A110A200A128A11D0
:100088002E3A031D482849289B2883160313331743
:100098000130A800280883120313EA078316031304
:1000A800BF01C00189280A30F3000030F40083162C
:1000B80003134008F6003F08F5000A168A15772151
:1000C8000A128A11740883160313C0007308BF004C
:1000D800831203136A0884000A168A110A200A1276
:1000E8008A11D03E83160313A800FF30031800308E
:1000F800A9002808BF070318C00A2908C00701304B
:10010800A800280883120313EA0783126A088400E8
:100118000A168A110A200A128A110A168A15FB2061
:100128000A128A11031899289A285728A32883168F
:100138000313BF01C0013316A3283315C1280130AA
:1001480083120313EA07FF306A0784000A168A112C
:100158000A200A128A1183160313C500A800A901F0
:100168002908003A0319B928652E2808003A031906
:100178007B2E663A0319A128652E00303205A800A7
:1001880007303305A900280829040319CC28CD28ED
:10019800202E331ED028D128D5280630BF000030A5
:1001A800C0003108840083130008C100840A0008D5
:1001B800C200840A0008C300840A0008C40004308E
:1001C800A8002808B1074408F6004308F5004208CB
:1001D800F4004108F3000030FA000030F900003064
:1001E800F8000030F7000A168A11EA200A128A116C
:1001F8000318FF2800291D29831603134408F60055
:100208004308F5004208F4004108F3000A168A156D
:10021800CE200A128A11760883160313C4007508C3
:10022800C3007408C2007308C1000330B204003070
:10023800B30483160313B801B9014408F600430850
:10024800F5004208F4004108F3000030FA000030DD
:10025800F9000030F8000030F7000A168A1542222B
:100268000A128A11031839293A293A2A03108316DF
:100278000313430D440D823EB800FF3003180030CD
:10028800B900FF30B8070318B90AFF30B9070330BF
:10029800F3000030F4003908F6003808F5000A16B3
:1002A8008A1577210A128A11740883160313B90074
:1002B8007308B8000A3083120313A0000030A100AD
:1002C80083160313390883120313A3008316031339
:1002D800380883120313A2000A168A154F240A123B
:1002E8008A1183120313210883160313B90083129A
:1002F8000313200883160313B800B91F842985291E
:100308008B29FF30B8070318B90AFF30B90738033B
:10031800FF3A0A128A159D240A128A1183120313BE
:10032800450883160313BD0083120313440883167C
:100338000313BC0083120313430883160313BB0083
:1003480083120313420883160313BA004408831266
:100358000313AB0083160313430883120313AA0085
:1003680083160313420883120313A9008316031389
:10037800410883120313A800831603133D08831250
:100388000313AF00831603133C0883120313AE0054
:10039800831603133B0883120313AD00831603135C
:1003A8003A0883120313AC000A128A153C210A1278
:1003B8008A11831203132B0883160313BD008312BB
:1003C80003132A0883160313BC0083120313290896
:1003D80083160313BB008312031328088316031321
:1003E800BA003D08F6003C08F5003B08F4003A085E
:1003F800F3003F30FA008030F9000030F800003098
:10040800F7000A168A11EA200A128A1103180D2A1F
:100418000E2A172AFF3083160313B8070318B90AE0
:10042800FF30B9073A2A831603133D08F6003C0843
:10043800F5003B08F4003A08F3004130FA00203098
:10044800F9000030F8000030F7000A168A11EA2097
:100458000A128A11031C312A322A3A2A01308316D9
:100468000313B8070318B90A0030B9078316031332
:100478004008803AFF0080307F02031D452A0D3076
:100488003F020318482A492A902A831603133F0873
:100498000A168A116B230A128A118312031345085C
:1004A800D9004408D8004308D7004208D60083166C
:1004B8000313440883120313DD0083160313430850
:1004C80083120313DC0083160313420883120313F9
:1004D800DB0083160313410883120313DA000A169C
:1004E8008A1178250A128A11831203135908831670
:1004F8000313C40083120313580883160313C3009D
:1005080083120313570883160313C20083120313BD
:10051800560883160313C100831603133908803A5B
:10052800FF0080307F02031D9B2A0A30380203181F
:100538009E2A9F2AF02A831603134408F6004308CC
:10054800F5004208F4004108F3000030FA000030DA
:10055800F9000030F8000030F7000A168A15422228
:100568000A128A110318B92ABA2A622B83160313AE
:10057800440883120313D800831603134308831215
:100588000313D70083160313420883120313D600FC
:1005980083160313410883120313D5000A128A1520
:1005A80004200A128A1183120313580857045604A8
:1005B8005504031DE02AE12A622B83160313390828
:1005C800803AFF0080307F02031DEC2A0230380297
:1005D800031CEF2AF02A622B831603133D08F6004A
:1005E8003C08F5003B08F4003A08F3004030FA00F4
:1005F8008930F9007030F8005F30F7000A168A1168
:10060800EA200A128A1103180A2B0B2B142BF73035
:1006180083160313B8070318B90AFF30B9071C2B50
:10062800F83083160313B8070318B90AFF30B9075F
:1006380038080A128A159D240A128A118312031394
:10064800450883160313BD00831203134408831659
:100658000313BC0083120313430883160313BB0060
:1006680083120313420883160313BA004408F600E2
:100678004308F5004208F4004108F3003D08FA0079
:100688003C08F9003B08F8003A08F7000A128A11FA
:1006980080260A128A11760883160313B700750894
:1006A800B6007408B5007308B4000030C400003008
:1006B800C3000030C2000030C100C82B83160313EA
:1006C800440883120313D8008316031343088312C4
:1006D8000313D70083160313420883120313D600AB
:1006E80083160313410883120313D5000A128A15CF
:1006F80004200A128A11831203135808831603135D
:10070800B70083120313570883160313B600831226
:100718000313560883160313B500831203135508F1
:1007280083160313B4003708F6003608F5003508B9
:10073800F4003408F30000300A128A1580200A12E7
:100748008A11760883160313A3007508A20074089B
:10075800A1007308A0004408A7004308A6004208A7
:10076800A5004108A4000A168A1592220A128A11C5
:10077800831603132308C4002208C3002108C200FB
:100788002008C100B801B901C501C50A4508A8007B
:1007980001300310A80DFF3E031DCD2B0310280DBB
:1007A800693E84000A168A110A200A128A11A900D1
:1007B8000A168A110A200A128A11AA000A168A1130
:1007C8000A200A128A11AB000A168A110A200A1294
:1007D8008A11AC002C083702031DFC2B2B083602AB
:1007E800031DFC2B2A083502031DFC2B29083402A3
:1007F8000318FF2B002C012C0B2C0130A800280813
:10080800C5070A304506031D0A2C0B2CCA2B0330DA
:100818003205A80000303305A90028082904031967
:10082800162C172C892C2D30A8003E088400280887
:10083800831380000130A8002808BE07892C4508CA
:10084800A80001300310A80DFF3E031D262C03103D
:10085800280D693E84000A168A110A200A128A1194
:10086800F3000A168A110A200A128A11F4000A16DD
:100878008A110A200A128A11F5000A168A110A201A
:100888000A128A11F6003708FA003608F900350806
:10089800F8003408F7000A168A15E7230A128A11A5
:1008A800760883160313BD007508BC007408BB00E6
:1008B8007308BA000030F6000030F5000030F4008C
:1008C8000A30F3003D08FA003C08F9003B08F8003C
:1008D8003A08F7000A168A1538230A128A11760888
:1008E80083160313BD007508BC007408BB007308A9
:1008F800BA003A08303EA8003E088400280883134E
:1009080080000130A8002808BE070130C502450A4A
:10091800031D8F2C902C232CA42C3030831603130A
:10092800A8003E0884002808831380000130A8002E
:100938002808BE07FF30B8070318B90AFF30B907FF
:100948003908803AFF0080307F02031DAD2C01304A
:1009580038020318B02CB12C912C831603134008CD
:10096800803AFF0080307F02031DBC2C09303F0213
:10097800031CBF2CC02CC72C083083160313A800F7
:100988002808C500CD2C831603133F08A8002808A3
:10099800C5004508A800A9012808BF022908031CAA
:1009A800C003C00245080319DA2CDB2CE62C2E30D4
:1009B800A8003E0884002808831380000130A8009E
:1009C8002808BE0745080A128A159D240A128A11AA
:1009D80083120313450883160313B000831203130D
:1009E800440883160313AF008312031343088316C6
:1009F8000313AE0083120313420883160313AD00DA
:100A0800300883120313AF00831603132F088312D1
:100A18000313AE00831603132E0883120313AD00CD
:100A2800831603132D0883120313AC0083160313D4
:100A3800440883120313AB0083160313430883127D
:100A48000313AA0083160313420883120313A90091
:100A580083160313410883120313A8000A128A1588
:100A68003C210A128A11831203132B08D8002A0882
:100A7800D7002908D6002808D5000A128A150420AC
:100A88000A128A1183120313580883160313B70036
:100A980083120313570883160313B6008312031334
:100AA800560883160313B5008312031355088316DB
:100AB8000313B400002E4508A80001300310A80D48
:100AC800FF3E031D622D0310280D693E84000A169F
:100AD8008A110A200A128A11F3000A168A110A20BA
:100AE8000A128A11F4000A168A110A200A128A11B7
:100AF800F5000A168A110A200A128A11F600370828
:100B0800FA003608F9003508F8003408F7000A1624
:100B18008A15E7230A128A11760883160313BD0083
:100B28007508BC007408BB007308BA000030F600F2
:100B38000030F5000030F4000A30F3003D08FA00F8
:100B48003C08F9003B08F8003A08F7000A168A152D
:100B580038230A128A11760883160313BD00750814
:100B6800BC007408BB007308BA003A08303EA800FD
:100B78003E0884002808831380000130A800280854
:100B8800BE074508A80001300310A80DFF3E031D4D
:100B9800C82D0310280D693E84000A168A110A2000
:100BA8000A128A11F3000A168A110A200A128A11F7
:100BB800F4000A168A110A200A128A11F5000A1688
:100BC8008A110A200A128A11F6003708FA00360834
:100BD800F9003508F8003408F7000A168A15382392
:100BE8000A128A11760883160313B7007508B6002F
:100BF8007408B5007308B4000130C502450A031D26
:100C0800062E072E5F2D192E3030A8003E088400CE
:100C18002808831380000130A8002808BE07FF3089
:100C2800BF070318C00AFF30C0073F084004031D70
:100C38001E2E1F2E082E652E3F084004031D252E4C
:100C4800262E342E3708360435043404031D2D2E81
:100C58002E2E342E0130BF070318C00A0030C007FB
:100C68004008803A803C031D3B2E3F08450203188C
:100C78003E2E3F2E402E4F2E831603134008803AF7
:100C8800A80080302802031D4B2E45083F02031898
:100C98004E2E4F2E4F2E0330831603133205A80015
:100CA80000303305A9002808290403195C2E5D2E9D
:100CB800652E2D30A8003E08840028088313800084
:100CC8003428013083120313EA07FF306A078400CF
:100CD8000A168A110A200A128A1183160313A80019
:100CE8002808C5004508031D7A2E7B2E27283E08B4
:100CF80084008313800108000310750D760D83129C
:100D08000313A0002008A6002608031D8C2E8D2E94
:100D1800962E0030F6000030F5000030F400003068
:100D2800F3003D2F0310790D7A0DA0002008A500CF
:100D38002508031DA02EA12EA22E8D2EF517FF30FB
:100D4800F305FF30F405FF30F5050030F605F91717
:100D5800FF30F705FF30F805FF30F9050030FA05D8
:100D68000030A4000030A3000030A2000030A10031
:100D78007F30A602A0302507A0002008A602203058
:100D8800A0002008A5000130A0000310A10DA20DAD
:100D9800A30DA40DA00BC92E7A087602031DDE2E22
:100DA80079087502031DDE2E78087402031DDE2EF5
:100DB80077087302031CE12EE22EF12E7708F30266
:100DC8007808031C780FF4027908031C790FF502E0
:100DD8007A08031C7A0FF60221140130A0000310D0
:100DE800F30DF40DF50DF60DA00BF32E0130A50251
:100DF800031DFF2E002FC72EA61F032F042F1E2F03
:100E08002608803A9F3E03180A2F0B2F0C2F8D2E91
:100E180001300310A40CA30CA20CA10CFF3E031D6F
:100E28000D2F0130A0002008A607031D1C2F1D2F21
:100E38000C2F352F20302602031C232F242F302F70
:100E48008D2E0130A0000310A10DA20DA30DA40D3D
:100E5800A00B272F0130A6022608031D342F352F9B
:100E6800252F2408F6002308F5002208F40021089D
:100E7800F3000800730883120313A0007408A1008C
:100E88007508A2000310210D220DA3002308A90054
:100E98002908031D502F512F5A2F0030F60000301B
:100EA800F5000030F4000030F300FA2F7708A000B6
:100EB8007808A1007908A2000310210D220DA300D3
:100EC8002308A8002808031D6A2F6B2F6C2F512FA9
:100ED800F417FF30F305FF30F4050030F505F81777
:100EE800FF30F705FF30F8050030F9050030A7009E
:100EF8000030A6000030A5000030A4007F30A90211
:100F080098302807A0002008A9021830A00020085F
:100F1800A8000130A0000310A40DA50DA60DA70D73
:100F2800A00B8F2F79087502031DA02F7808740273
:100F3800031DA02F77087302031CA32FA42FAF2F24
:100F48007708F3027808031C780FF4027908031C69
:100F5800790AF502241401300310F30DF40DF50D90
:100F6800FF3E031DB02F0130A802031DBC2FBD2F6B
:100F78008D2FA91FC02FC12FDB2F2908803A973E3C
:100F88000318C72FC82FC92F512F01300310A70CE2
:100F9800A60CA50CA40CFF3E031DCA2F0130A0000F
:100FA8002008A907031DD92FDA2FC92FF22F1830CF
:100FB8002902031CE02FE12FED2F512F0130A00053
:100FC8000310A40DA50DA60DA70DA00BE42F01304D
:100FD800A9022908031DF12FF22FE22F2708F60096
:0E0FE8002608F5002508F4002408F300080090
:10100800031083120313570D580DD9005908DF0038
:101018005F08031D102811281A280030D800003056
:10102800D7000030D6000030D5007F285508D900F9
:101038005608DA005708DB005808DC001F30031098
:10104800DC0CDB0CDA0CD90CFF3E031D23285908F5
:10105800DD005D08DE00D717FF30D505FF30D60567
:10106800FF30D7050030D8059630DF02DF1F3D2856
:101078003E2858285F08803A973E03184428452898
:101088004628112801300310D80CD70CD60CD50CE3
:10109800FF3E031D47280130D9005908DF07031D0B
:1010A8005628572846286F2820305F02031C5D28E1
:1010B8005E286A2811280130D9000310D50DD60DF5
:1010C800D70DD80DD90B61280130DF025F08031D49
:1010D8006E286F285F285E080319732874287F28F4
:1010E800D509D609D709D809D50A0319D60A031983
:1010F800D70A0319D80A080083120313A00020088E
:101108000319872888289C28F61F8B288C289C2858
:101118007309A2007409A3007509A4007609A50043
:10112800A20A0319A30A0319A40A0319A50AA428E1
:101138007608A5007508A4007408A3007308A20027
:101148007608750474047304031DAB28AC28B5280D
:101158000030F6000030F5000030F4000030F300F5
:101168003B299630F7007708A100C7280130F7001F
:101178007708A10701300310A50CA40CA30CA20C3E
:10118800FF3E031DBF28FE302505031DCC28CD28B2
:10119800BA28E9280130F7007708A1070130A2072B
:1011A800003003180130A307003003180130A407EA
:1011B800003003180130A50701300310A50CA40C5A
:1011C800A30CA20CFF3E031DE128FF302505031DDB
:1011D800EE28EF28CE28FB280130A1020130F700C5
:1011E8000310A20DA30DA40DA50DF70BF428A41B45
:1011F800FE28FF28052902302102031804290529A1
:10120800F0282118082909291129FF30A205FF30E3
:10121800A3057F30A405FF30A5050310A10C210804
:10122800F700F801F901FA0118300310F70DF80D6D
:10123800F90DFA0DFF3E031D19297708A204780855
:10124800A3047908A4047A08A504200803192D2901
:101258002E293329F61F312932293329A5172508C4
:10126800F6002408F5002308F4002208F30008001B
:10127800831203132B088039B0003008B5002B08FF
:10128800B0003007B1003108BB00AA1F4C294D2916
:101298004E293B143B0803195229532962293B0A5A
:1012A800031D5729582960290030AB000030AA00D7
:1012B8000030A9000030A800AA176A290030AB0046
:1012C8000030AA000030A9000030A8002F0880399B
:1012D800B0003008B5062F08B0003007B10031085B
:1012E800BA00AE1F782979297A293A143A080319DD
:1012F8007E297F298E293A0A031D832984298C296E
:101308000030AF000030AE000030AD000030AC005F
:10131800AE1796290030AF000030AE000030AD00A7
:101328000030AC003A0803199A299B29A0293B08E8
:10133800031D9F29A029A9290030AB000030AA006D
:101348000030A9000030A8009C2C2808B000300804
:10135800F3002E080A168A11C1200A128A15740889
:1013680083120313C1007308C0004008B000B10124
:10137800B201B3013308B9003208B8003108B70028
:101388003008B6004108B000B101B201B30133081A
:10139800BF003208BE003108BD003008BC00290873
:1013A800B0003008F3002D080A168A11C1200A126D
:1013B8008A15740883120313C1007308C00040081B
:1013C800B000B101B201B3013008B607310803110A
:1013D8000318013E0319F129B7073208031103184E
:1013E800013E0319F829B807330803110318013E11
:1013F8000319FF29B9074108B000B101B201B301CF
:101408003008BC07310803110318013E03190D2ADF
:10141800BD07320803110318013E0319142ABE0739
:10142800330803110318013E03191B2ABF072A08B2
:10143800B0003008F3002C080A168A11C1200A12DD
:101448008A15740883120313C1007308C00040088A
:10145800B000B101B201B3013008B6073108031179
:101468000318013E0319392AB70732080311031874
:10147800013E0319402AB807330803110318013E37
:101488000319472AB9074108B000B101B201B301F5
:101498003008BC07310803110318013E0319552A07
:1014A800BD07320803110318013E03195C2ABE0761
:1014B800330803110318013E0319632ABF070830D4
:1014C800B0000310B60DB70DB80DB90DB00B652AF5
:1014D8002908B0003008F3002C080A168A11C12028
:1014E8000A128A15740883120313C1007308C00016
:1014F8004008B0004108B100B201B3013008B60796
:10150800310803110318013E03198B2AB707320863
:1015180003110318013E0319922AB807330803116F
:101528000318013E0319992AB9072808B0003008A2
:10153800F3002D080A168A11C1200A128A157408A8
:1015480083120313C1007308C0004008B0004108AB
:10155800B100B201B3013008B6073108031103180E
:10156800013E0319B82AB707320803110318013ED0
:101578000319BF2AB807330803110318013E0319DA
:10158800C62AB9070830B0000310B60DB70DB80D5C
:10159800B90DB00BC82A2808B0003008F3002C0891
:1015A8000A168A11C1200A128A15740883120313B5
:1015B800C1007308C0004008B0004108B100B20182
:1015C800B3013008B607310803110318013E0319A7
:1015D800EE2AB707320803110318013E0319F52A4A
:1015E800B807330803110318013E0319FC2AB90789
:1015F8002908B0003008F3002E080A168A11C12005
:101608000A128A15740883120313C1007308C000F4
:101618004008B0004108B100B201B3013008BC076E
:10162800310803110318013E03191B2BBD073208AB
:1016380003110318013E0319222BBE0733080311B7
:101648000318013E0319292BBF072A08B0003008E8
:10165800F3002D080A168A11C1200A128A15740887
:1016680083120313C1007308C0004008B00041088A
:10167800B100B201B3013008BC07310803110318E7
:10168800013E0319482BBD07320803110318013E18
:1016980003194F2BBE07330803110318013E031922
:1016A800562BBF072A08B0003008F3002E080A1688
:1016B8008A11C1200A128A15740883120313C10003
:1016C8007308C0004008B0004108B100B201B3017E
:1016D80008300310B00DB10DB20DB30DFF3E031D60
:1016E8006D2B3008BC07310803110318013E03199C
:1016F8007E2BBD07320803110318013E0319852B01
:10170800BE07330803110318013E03198C2BBF07CA
:101718003608B0003708B1003808B2003908B300FD
:1017280018300310B30CB20CB10CB00CFF3E031D03
:10173800952B3008BC07310803110318013E031923
:10174800A62BBD07320803110318013E0319AD2B60
:10175800BE07330803110318013E0319B42BBF0752
:101768000830B0000310B60DB70DB80DB90DB00BA9
:10177800B62B3B083A07B000B101B10D3008823EE4
:10178800C00031080318013EFF3EC100E82B0130BC
:10179800B0000310BC0DBD0DBE0DBF0DB00BCD2BA1
:1017A800B91FD72BD82BD92B3C140130B00003100C
:1017B800B60DB70DB80DB90DB00BDB2BFF30C00758
:1017C8000318C10AFF30C107BE1FEB2BEC2BCB2B34
:1017D800BA01B91FF02BF12B0D2CFF303605B000E4
:1017E800FF303705B100FF303805B2007F303905CA
:1017F800B30033083204310430040319042C052CD7
:10180800082CBA01BA0A0D2C3C1C0B2C0C2C0D2CE4
:10181800052C3A080319112C122C432C0130BC0753
:10182800003003180130BD07003003180130BE072F
:10183800003003180130BF073F1C232C242C432CF5
:101848003C08B0003D08B1003E08B2003F08B300B4
:101858000130B400330DB30CB20CB10CB00CB40BA6
:101868002E2C3308BF003208BE003108BD003008F6
:10187800BC000130C0070318C10A0030C107410885
:10188800803AFF0080307F02031D4C2CFF3040025D
:10189800031C4F2C502C5B2C7F3083120313BF008A
:1018A8008030BE000030BD000030BC00902C831298
:1018B80003134108803AFF0080307F02031D662C25
:1018C800013040020318692C6A2C762C00308312F0
:1018D8000313BF000030BE000030BD000030BC0064
:1018E800B501902C831203134008B0003008BB00E8
:1018F800FF30BC05FF30BD057F30BE050030BF0599
:101908003B1C872C882C892CBE173B08B000031081
:10191800300CB1003108BF003508B0003008BF04F2
:101928003F08AB003E08AA003D08A9003C08A800F3
:10193800080083120313D400D41FA32CA42C532E05
:10194800D409D40A5408803A123E031CAC2CAD2C9E
:10195800972D0A30A0000030A1005408F500F601C8
:10196800F51BF6036430F3000030F4000A168A15FC
:101978008E230A128A15740883120313A3007308AE
:10198800A2000A168A154F240A128A158312031315
:101998002008C60001300310C60DFF3E031DCF2CE2
:1019A8000310460D593E84000A168A110A200A12AD
:1019B8008A15C7000A168A110A200A128A15C80051
:1019C8000A168A110A200A128A15C9000A168A11EB
:1019D8000A200A128A15CA004A08AB004908AA0058
:1019E8004808A9004708A8006430A0000030A100FA
:1019F8005408A200A301A21BA3030A168A154F24A8
:101A08000A128A15831203132008CB000130031031
:101A1800CB0DFF3E031D0B2D03104B0D7D3E8400A7
:101A28000A168A110A200A128A15CC000A168A1187
:101A38000A200A128A15CD000A168A110A200A12EB
:101A48008A15CE000A168A110A200A128A15CF00B2
:101A58004F08AF004E08AE004D08AD004C08AC0072
:101A68000A128A153C210A128A15831203132B08BD
:101A7800D3002A08D2002908D1002808D0000A304B
:101A8800F3000030F4005408F500F601F51BF603E6
:101A98000A168A158E230A128A15730883120313ED
:101AA800C60001300310C60DFF3E031D562D03105E
:101AB800460D353E84000A168A110A200A128A1534
:101AC800C7000A168A110A200A128A15C8000A16BF
:101AD8008A110A200A128A15C9000A168A110A20D0
:101AE8000A128A15CA004A08AB004908AA00480821
:101AF800A9004708A8005308AF005208AE005108D3
:101B0800AD005008AC000A128A153C210A128A1549
:101B1800831203132B08C5002A08C4002908C30030
:101B28002808C200FF2F5408803A753E031C9D2DDB
:101B38009E2D262E0A30F3000030F4005408F500DC
:101B4800F601F51BF6030A168A158E230A128A1562
:101B5800730883120313C60001300310C60DFF3E3D
:101B6800031DB12D0310460D353E84000A168A1157
:101B78000A200A128A15C7000A168A110A200A12B0
:101B88008A15C8000A168A110A200A128A15C9007D
:101B98000A168A110A200A128A15CA004A08AB00D6
:101BA8004908AA004808A9004708A8000A30A00068
:101BB8000030A1005408A200A301A21BA3030A1627
:101BC8008A154F240A128A15831203132008CB00A2
:101BD80001300310CB0DFF3E031DED2D03104B0DFF
:101BE800593E84000A168A110A200A128A15CC0066
:101BF8000A168A110A200A128A15CD000A168A11B5
:101C08000A200A128A15CE000A168A110A200A1218
:101C18008A15CF004F08AF004E08AE004D08AD0042
:101C28004C08AC000A128A153C210A128A15831244
:101C380003132B08C5002A08C4002908C300280874
:101C4800C200FF2F5408C60001300310C60DFF3E26
:101C5800031D292E0310460D353E84000A168A11ED
:101C68000A200A128A15C7000A168A110A200A12BF
:101C78008A15C8000A168A110A200A128A15C9008C
:101C88000A168A110A200A128A15CA004A08C500CB
:101C98004908C4004808C3004708C200FF2F540879
:101CA800803A123E031C592E5A2E442F0A30A000A7
:101CB8000030A1005408F500F601F51BF603643066
:101CC800F3000030F4000A168A158E230A128A15CA
:101CD800740883120313A3007308A2000A168A1556
:101CE8004F240A128A15831203132008C6000130F4
:101CF8000310C60DFF3E031D7C2E0310460D253E26
:101D080084000A168A110A200A128A15C7000A16C0
:101D18008A110A200A128A15C8000A168A110A208E
:101D28000A128A15C9000A168A110A200A128A1587
:101D3800CA004A08AB004908AA004808A900470891
:101D4800A8006430A0000030A1005408A200A3013C
:101D5800A21BA3030A168A154F240A128A15831296
:101D680003132008CB0001300310CB0DFF3E031DE9
:101D7800B82E03104B0D493E84000A168A110A201A
:101D88000A128A15CC000A168A110A200A128A1524
:101D9800CD000A168A110A200A128A15CE000A16E0
:101DA8008A110A200A128A15CF004F08AF004E0880
:101DB800AE004D08AD004C08AC000A128A153C2153
:101DC8000A128A15831203132B08D3002A08D2009B
:101DD8002908D1002808D0000A30F3000030F400A8
:101DE8005408F500F601F51BF6030A168A158E232A
:101DF8000A128A15730883120313C60001300310F0
:101E0800C60DFF3E031D032F0310460D013E84003F
:101E18000A168A110A200A128A15C7000A168A1198
:101E28000A200A128A15C8000A168A110A200A12FC
:101E38008A15C9000A168A110A200A128A15CA00C8
:101E48004A08AB004908AA004808A9004708A800A2
:101E58005308AF005208AE005108AD005008AC005E
:101E68000A128A153C210A128A15831203132B08B9
:101E7800C5002A08C4002908C3002808C200FF2F8B
:101E88005408803A753E031C4A2F4B2FD32F0A3033
:101E9800F3000030F4005408F500F601F51BF603D2
:101EA8000A168A158E230A128A15730883120313D9
:101EB800C60001300310C60DFF3E031D5E2F031040
:101EC800460D013E84000A168A110A200A128A1554
:101ED800C7000A168A110A200A128A15C8000A16AB
:101EE8008A110A200A128A15C9000A168A110A20BC
:101EF8000A128A15CA004A08AB004908AA0048080D
:101F0800A9004708A8000A30A0000030A100540822
:101F1800A200A301A21BA3030A168A154F240A12C2
:101F28008A15831203132008CB0001300310CB0D50
:101F3800FF3E031D9A2F03104B0D253E84000A1601
:101F48008A110A200A128A15CC000A168A110A2058
:101F58000A128A15CD000A168A110A200A128A1551
:101F6800CE000A168A110A200A128A15CF004F08D5
:101F7800AF004E08AE004D08AD004C08AC000A1288
:101F88008A153C210A128A15831203132B08C500EF
:101F98002A08C4002908C3002808C200FF2F5408D3
:101FA800C60001300310C60DFF3E031DD62F0310D7
:101FB800460D013E84000A168A110A200A128A1563
:101FC800C7000A168A110A200A128A15C8000A16BA
:101FD8008A110A200A128A15C9000A168A110A20CB
:101FE8000A128A15CA004A08C5004908C4004808E8
:101FF800C3004708C2000800FF1B0A2883137F1884
:1020080083170008840A0319FF0A080010308A00A1
:102018000408840A820700340034003480343F34D2
:10202800003400342034413400340034C83442349D
:10203800003400347A344434003440341C34463498
:1020480000345034C33447340034243474344934AD
:102058008034963418344B342034BC34BE344C3479
:1020680028346B346E344E34F93402341534503419
:10207800EC347834AD346034CA34F23449347134D1
:102088000034003480343F34CD34CC34CC343D3447
:102098000A34D73423343C346F34123483343A341A
:1020A8001734B734D1343834AC34C53427343734E2
:1020B800BD343734863435349534BF34D63433346C
:1020C8007734CC342B3432345F3470348934303440
:1020D800FF34E634DB342E340834E5343C341E3423
:1020E80060344234A2340D340134003400340034F6
:1020F8000A340034003400346434003400340034CA
:10210800E834033400340034103427340034003405
:10211800A034863401340034403442340F3400345F
:1021280080349634983400340034E134F53405347E
:102138000034CA349A343B3425342E34313466346E
:102148000034533431343A340034533432343A346A
:0A2158000034533433343A340034B9
:10216800831203131F14831603139F139F121F1246
:102178000C17831203130C13080083120313A40013
:10218800A001A1017308F500F6017508A200760800
:10219800A300241CD028D128D7282208A007031878
:1021A800A10A2308A10701300310A20DA30DFF3EC9
:1021B800031DD8280310A40C2408031DE428E528CF
:1021C800CD282108F4002008F3000800003073052A
:1021D80083120313A00000307405A1008030750538
:1021E800A2007F307605A3002308220421042004DE
:1021F800031DFF28002908290030F6000030F500EB
:102208000030F4000030F30000307705A000003003
:102218007805A10080307905A2007F307A05A300F7
:102228002308220421042004031D1B291C29242916
:102238000030FA000030F9000030F8000030F700F4
:10224800F61F272928294C290030A0000030A100BA
:102258000030A2008030A3007308A0027408031C99
:10226800740F37293829A1027508031C750F3D29F9
:102278003E29A2027608031C760F43294429A302AB
:102288002308F6002208F5002108F4002008F300CE
:10229800FA1F4F29502974290030A0000030A100EE
:1022A8000030A2008030A3007708A0027808031C41
:1022B800780F5F296029A1027908031C790F652925
:1022C8006629A2027A08031C7A0F6B296C29A302DB
:1022D8002308FA002208F9002108F8002008F7006E
:1022E8008030F6068030FA067A087602031D8629C1
:1022F80079087502031D862978087402031D86294A
:1023080077087302031889298A298C2903108D29D3
:10231800031408008312031349088039CA004A08C5
:10232800D3004908CA004A07CB004B08DA00C81F87
:102338009E299F29A0295A145A080319A429A529B6
:10234800B5295A0A031DA929AA29B2290030C900AA
:102358000030C8000030C7000030C600C817C901E7
:10236800BD290030C9000030C8000030C700003067
:10237800C60045088039CA004A08D3064508CA007D
:102388004A07CB004B08DB00C41FCB29CC29CD2939
:102398005B145B080319D129D229E2295B0A031DC2
:1023A800D629D729DF290030C5000030C400003005
:1023B800C3000030C200C417C501EA290030C500B7
:1023C8000030C4000030C3000030C2004508440497
:1023D80043044204031DF129F2290B2A0030C900E5
:1023E8000030C8000030C7000030C6008030C80484
:1023F8007F30C9045308CA004A08C9044908C500FF
:102408004808C4004708C3004608C2006A2B5A0897
:10241800031D0F2A102A192A0030C5000030C400F5
:102428000030C3000030C2006A2B5A08CA00CB0132
:102438004B08CD005B084A02CC00031CCD034C08B6
:102448007F3ED4004D080318013E003ED5004908E0
:10245800D2004808D1004708D0004608CF00003015
:10246800C9000030C8000030C7000030C600003086
:10247800D9000030D8000030D7000030D600DB018A
:102488008F2A5B080319492A4A2A6A2A0130CA0096
:102498000310CF0DD00DD10DD20DCA0B4C2A01302F
:1024A800CA000310C60DC70DC80DC90DCA0B552AA1
:1024B800D91F5F2A602A612A46140130CA00031016
:1024C800D60DD70DD80DD90DCA0B632A450852026F
:1024D800031D782A44085102031D782A4308500234
:1024E800031D782A42084F02031C7B2A7C2A8B2A68
:1024F80059174208CF024308031C430FD00244086F
:10250800031C440FD1024508031C450FD2020130B9
:10251800CA004A08DB071A305B02031C942A952A72
:10252800452A5208510450044F0403199C2A9D2A35
:10253800BC2A5614BC2A0130CA000310C60DC70DA8
:10254800C80DC90DCA0BA12AD91FAB2AAC2AAD2ABE
:1025580046140130CA000310D60DD70DD80DD90D79
:10256800CA0BAF2AFF30D4070318D50AFF30D507A6
:10257800C81FBF2AC02A9F2ADB01D91FC42AC52A1F
:10258800E12AFF305605CA00FF305705CB00FF305F
:102598005805CC007F305905CD004D084C044B043C
:1025A8004A040319D82AD92ADC2ADB01DB0AE12AE2
:1025B800461CDF2AE02AE12AD92A5B080319E52A02
:1025C800E62A172B0130C607003003180130C70769
:1025D800003003180130C807003003180130C9075C
:1025E800491CF72AF82A172B4608CA004708CB00C7
:1025F8004808CC004908CD000130CE004D0DCD0C67
:10260800CC0CCB0CCA0CCE0B022B4D08C9004C08C5
:10261800C8004B08C7004A08C6000130D407031891
:10262800D50A0030D5075508803AFF0080307F0270
:10263800031D202BFF305402031C232B242B322B89
:10264800FF3083120313D4000030D5000030C900D6
:102658000030C8000030C7000030C60083120313E2
:102668005508803AFF0080307F02031D3D2B013062
:1026780054020318402B412B4E2B83120313D40111
:10268800D5010030C9000030C8000030C700003054
:10269800C600D301831203135408CA004A08DA009B
:1026A8005A1C572B582B5A2BC8175E2B7F30CA0041
:1026B8004A08C8055A08CA0003104A0CCB004B0840
:1026C800C9005308CA004A08C904022A080083122C
:1026D8000313D5006E305502031C732B742B832C07
:1026E8003F30AB000030AA000030A9000030A8003D
:1026F8006430A0000030A1005508C600C701460894
:10270800A2004708A3000A168A15FC210A168A1196
:10271800831203132008C80001300310C80DFF3EC0
:10272800031D912B0310480D7D3E84000A168A1163
:102738000A200A168A11C9000A168A110A200A16DE
:102748008A11CA000A168A110A200A168A11CB00B1
:102758000A168A110A200A168A11CC004C08AF0002
:102768004B08AE004A08AD004908AC000A128A15A9
:102778003C210A168A11831203132B08D4002A0855
:10278800D3002908D2002808D1000A30A000003060
:10279800A1005508C600C7014608F5004708F6001D
:1027A8006430F3000030F4000A168A15C2210A16B4
:1027B8008A11740883120313A3007308A2000A166F
:1027C8008A15FC210A168A11831203132008C800EF
:1027D80001300310C80DFF3E031DED2B0310480DFB
:1027E800593E84000A168A110A200A168A11C9005D
:1027F8000A168A110A200A168A11CA000A168A11AC
:102808000A200A168A11CB000A168A110A200A160B
:102818008A11CC004C08AB004B08AA004A08A90052
:102828004908A8005408AF005308AE005208AD008C
:102838005108AC000A128A153C210A168A11831223
:1028480003132B08D0002A08CF002908CE00280837
:10285800CD000A30F3000030F4005508C600C70167
:102868004608F5004708F6000A168A15C2210A1616
:102878008A11730883120313C80001300310C80DAE
:10288800FF3E031D422C0310480D353E84000A16F6
:102898008A110A200A168A11C9000A168A110A2002
:1028A8000A168A11CA000A168A110A200A168A11FB
:1028B800CB000A168A110A200A168A11CC004C0885
:1028C800AB004B08AA004A08A9004908A80050080C
:1028D800AF004F08AE004E08AD004D08AC000A121C
:1028E8008A153C210A168A11831203132B08C50086
:1028F8002A08C4002908C3002808C200772D0B3015
:102908005502031C882C892C342D3F30AB00003035
:10291800AA000030A9000030A8000A30A00000304A
:10292800A1005508C600C7014608A2004708A30031
:102938000A168A15FC210A168A1183120313200825
:10294800C80001300310C80DFF3E031DA62C03105C
:10295800480D593E84000A168A110A200A168A115F
:10296800C9000A168A110A200A168A11CA000A160C
:102978008A110A200A168A11CB000A168A110A201F
:102988000A168A11CC004C08AF004B08AE004A0862
:10299800AD004908AC000A128A153C210A168A11B2
:1029A800831203132B08D4002A08D3002908D20065
:1029B8002808D1000A30F3000030F4005508C6009A
:1029C800C7014608F5004708F6000A168A15C2210D
:1029D8000A168A11730883120313C8000130031002
:1029E800C80DFF3E031DF32C0310480D353E84002F
:1029F8000A168A110A200A168A11C9000A168A11AB
:102A08000A200A168A11CA000A168A110A200A160A
:102A18008A11CB000A168A110A200A168A11CC00DC
:102A28004C08AB004B08AA004A08A9004908A800AE
:102A38005408AF005308AE005208AD005108AC006E
:102A48000A128A153C210A168A11831203132B08CD
:102A5800C5002A08C4002908C3002808C200772D29
:102A68003F30AB000030AA000030A9000030A800B9
:102A78005508C60001300310C60DFF3E031D3F2D4B
:102A88000310460D353E84000A168A110A200A16DC
:102A98008A11C7000A168A110A200A168A11C80064
:102AA8000A168A110A200A168A11C9000A168A11FA
:102AB8000A200A168A11CA004A08AF004908AE005F
:102AC8004808AD004708AC000A128A153C210A16CE
:102AD8008A11831203132B08C5002A08C400290889
:102AE800C3002808C200080083120313590880395C
:102AF800DE005E08E6005908DE005E07DF005F08BA
:102B0800E800D81F882D892D8A2D681468080319B4
:102B18008E2D8F2D9F2D680A031D932D942D9C2D8E
:102B28000030D9000030D8000030D7000030D6007F
:102B3800D817D901A72D0030D9000030D8000030AF
:102B4800D7000030D6005D088039DE005E08E70057
:102B5800670866060319B12DB22DB32D66175D08F7
:102B6800DE005E07DF005F08E700DC1FBC2DBD2D1F
:102B7800BE2D671467080319C22DC32DD32D670A0C
:102B8800031DC72DC82DD02D0030DD000030DC001E
:102B98000030DB000030DA00DC17DD01DB2D00300F
:102BA800DD000030DC000030DB000030DA006808AF
:102BB80067020318E02DE12D252E661FE42DE52D73
:102BC800E92D8030DE005E08E6066808DE005E0853
:102BD800E9006708DE005E08E8006908DE005E08B4
:102BE800E7005608DE005E08E9005A08DE005E08C5
:102BF800D6006908DE005E08DA005708DE005E08C5
:102C0800E9005B08DE005E08D7006908DE005E08A0
:102C1800DB005808DE005E08E9005C08DE005E089C
:102C2800D8006908DE005E08DC005908DE005E088E
:102C3800E9005D08DE005E08D9006908DE005E086C
:102C4800DD00E9016708DE00DF015F08E1006808D0
:102C58005E02E000031CE1036108803AFF00803057
:102C68007F02031D392E1A306002031C3C2E3D2EB4
:102C78007A2E831203135908580457045604031D67
:102C8800462E482E0130492E0030DE005E08E9004D
:102C98000030D9000030D8000030D7000030D6000E
:102CA8006708DE005E08E800822E691C5C2E5D2E37
:102CB800662E6908DE0003105E0C0138DF005F082D
:102CC800E900682E0310E90C561C6B2E6C2E6D2E35
:102CD800E9170130DE00590DD90CD80CD70CD60CE9
:102CE800DE0B6F2E0130DE005E08E8078312031347
:102CF80067086802031C812E822E592E661B852EBA
:102D0800862ED12E6808031D8A2E8B2E942E003015
:102D1800D9000030D8000030D7000030D600FF2F8F
:102D28005A08D6075B0803110318013E03199D2EA4
:102D3800D7075C0803110318013E0319A42ED8070E
:102D48005D0803110318013E0319AB2ED907591C5E
:102D5800AE2EAF2E852F691CB22EB32EBC2E69085D
:102D6800DE0003105E0C0138DF005F08E900BE2EAC
:102D78000310E90C561CC12EC22EC32EE9170130D0
:102D8800DE00590DD90CD80CD70CD60CDE0BC52E8D
:102D98000130DE005E08E807852F5908803AFF00F9
:102DA8005D08803A7F02031DE32E5C085802031D6C
:102DB800E32E5B085702031DE32E5A085602031838
:102DC800E62EE72E3F2FFF30DE00FF30DF00FF301A
:102DD800E000FF30E1005A08E2005B08E3005C080D
:102DE800E4005D08E5005608E2025708031C570F87
:102DF800FE2EFF2EE3025808031C580F042F052F40
:102E0800E4025908031C590F0A2F0B2FE502620828
:102E1800DE0763080318630F122F132FDF076408F8
:102E28000318640F182F192FE00765080318650A9F
:102E3800E1076108D9006008D8005F08D7005E087C
:102E4800D6008030DE005E08E606E909E90A69086E
:102E5800031D2F2F302F4D2F0130D60700300318B8
:102E68000130D707003003180130D80700300318A5
:102E78000130D9074D2F5A08D6025B08031C5B0F97
:102E8800D7025C08031C5C0FD8025D08031C5D0FA9
:102E9800D9025908580457045604031D542F552FB6
:102EA800812F6908031D592F5A2F812F0030D9000F
:102EB8000030D8000030D7000030D600FF2F013096
:102EC800DE000310D60DD70DD80DD90DDE0B652FFA
:102ED800E91F6F2F702F712F5614691C742F752FCF
:102EE800782F0314E90D7A2F0310E90D68080319E8
:102EF8007E2F7F2F812F0130E802D81F842F852F46
:102F0800632FE701E91F892F8A2F982F69087F39D6
:102F180003198F2F902F932FE701E70A982F561C3C
:102F2800962F972F982F902F670803199C2F9D2F66
:102F3800D12F0130D607003003180130D7070030F1
:102F480003180130D807003003180130D907591C7D
:102F5800AE2FAF2FD12F5608DE005708DF005808D4
:102F6800E0005908E1000130E200610DE10CE00CDD
:102F7800DF0CDE0CE20BB92F6108D9006008D8001D
:102F88005F08D7005E08D600680A0319CC2FCD2F3A
:102F9800D12F0130DE005E08E807680A0319D52F33
:102FA800D62FDB2F6808031DDA2FDB2FE92F00301F
:102FB800D9000030D8000030D7000030D6006808AB
:102FC800031DE72FE82FE92FE601681CEC2FED2FF2
:102FD800EF2FD817F32F7F30DE005E08D80568087A
:102FE800DE0003105E0CDF005F08D900E61FFD2F2E
:082FF800FE2FFF2FD91708007E
:103180008B170B17831603130C17080064008001BC
:10319000840A0406031900340406C7287608750457
:1031A000740473040319D528D628D8288030F6066D
:1031B0000800F500750883120313850007148710B3
:1031C00007150A168A1520210A168A158312031379
:1031D00007110800F5007508831203138500071016
:1031E000871007150A168A1520210A168A158312D8
:1031F000031307110800F400F3013A3074020318B6
:10320000022903290B2930307402031C08290929DB
:103210000B29F301F30A730C0800831603138501CD
:10322000FF308600870188018316031788018916FD
:1032300009148312031385018601870188010800A0
:10324000F301F4010130F3070318F40A0030F40726
:103250007408803AFF0080307F02031D312932302C
:103260007302031C3429352922290800F70077034B
:10327000031D3B293C2944297608803E0A168A15FD
:10328000EA200A168A15512902307706031D4929BA
:103290004A2951297608C03E0A168A15EA200A16DC
:1032A0008A150800F5006329831203139F131F1367
:1032B0007629831203139F131F1776298312031392
:1032C0009F171F1376297508F300F4017408003A5C
:1032D00003196B2976297308003A03195429013A16
:1032E00003195929023A03195E2976290800F701C2
:1032F000F801731C7C297D2983297508F7070318B9
:10330000F80A7608F80701300310F50DF60DFF3EB8
:10331000031D842901300310F40CF30CFF3E031D40
:103320008B2973087404031D962997297929780835
:10333000F4007708F3000800B1297708FF00760849
:1033400084000A168A1100200A168A150A168A15A0
:10335000D9200A168A150130F6070318F70A00303B
:10336000F707770883120313FF00760884000A1614
:103370008A1100200A168A15003A031DC029C129A6
:103380009D290800730874040319C729C829F7295F
:10339000F801F80AD62901300310F30DF40DFF3EB1
:1033A000031DCC290130F7007708F807F41FD9294D
:1033B000DA29CB2974087602031DE0297308750207
:1033C000031CE329E429EA297308F5027408031CA5
:1033D000F603F60201300310F40CF30CFF3E031D5C
:1033E000EB290130F802031DF629F729DA297608BE
:1033F000F4007508F300080083120313A401A5016B
:10340000200821040319052A062A3D2AA601A60A36
:10341000142A01300310A00DA10DFF3E031D0A2A3E
:103420000130F9007908A607A11F172A182A092ACE
:1034300001300310A40DA50DFF3E031D192A21081C
:103440002302031D252A20082202031C282A292AD8
:10345000302A2008A2022108031CA303A30224147B
:1034600001300310A10CA00CFF3E031D312A0130D6
:10347000A602031D3C2A3D2A182A2508A10024087B
:10348000A00008000030730583120313A000003071
:103490007405A10080307505A2007F307605A30079
:1034A0002308220421042004031D572A582A602AD5
:1034B0000030F6000030F5000030F4000030F3007A
:1034C00000307705A00000307805A1008030790534
:1034D000A2007F307A05A3002308220421042004DF
:1034E000031D732A742A7C2A0030FA000030F90088
:1034F0000030F8000030F7007A087606031D8A2AAB
:1035000079087506031D8A2A78087406031D8A2A1D
:103510007708730603198D2A8E2A902A0310912AA0
:1035200003140800803083160313A30627088312B0
:103530000313D90083160313260883120313D8003C
:1035400083160313250883120313D700831603136E
:10355000240883120313D60083160313230883124F
:103560000313DD0083160313220883120313DC0008
:1035700083160313210883120313DB00831603133E
:10358000200883120313DA000A168A1178250A1616
:103590008A1583120313590883160313A300831299
:1035A0000313580883160313A2008312031357084A
:1035B00083160313A1008312031356088316031303
:1035C000A00008001A30F700F830F600F60BE62AE3
:1035D000F70BE62A000030300A168A15EA200A1690
:1035E0008A150730F7007D30F600F60BF52AF70B49
:1035F000F52A30300A168A15EA200A168A15C730CD
:10360000F600022BF60B012B052B062B30300A1689
:103610008A15EA200A168A15C730F6000F2BF60B1A
:103620000E2B122B132B38300A168A15EA200A1695
:103630008A1510300A168A15EA200A168A150130F2
:103640000A168A15EA200A168A1506300A168A15FD
:10365000EA200A168A150C300A168A15EA200A167C
:103660008A1580300A168A15EA200A168A1508007B
:10367000760875047404730403193F2B402B852BC3
:1036800083120313A101A10A522B0130A0000310E1
:10369000F30DF40DF50DF60DA00B472B0130A00036
:1036A0002008A107F61F552B562B452B76087A02CA
:1036B000031D642B75087902031D642B74087802BE
:1036C000031D642B73087702031C672B682B762B72
:1036D0007308F7027408031C740FF8027508031CC2
:1036E000750FF9027608031C760FFA0201300310F9
:1036F000F60CF50CF40CF30CFF3E031D772B013098
:10370000A102031D842B852B562B7A08F60079081D
:10371000F5007808F4007708F3000800F901F61FB7
:10372000922B932B9A2BF509F609F50A0319F60A41
:10373000F901F90AF41F9D2B9E2BA32BF309F40921
:10374000F30A0319F40A730874040319A82BA92BAC
:10375000D82BF801F80AB72B01300310F30DF40D44
:10376000FF3E031DAD2B0130F7007708F807F41F6B
:10377000BA2BBB2BAC2B74087602031DC12B73082C
:103780007502031CC42BC52BCB2B7308F5027408E0
:10379000031CF603F60201300310F40CF30CFF3E99
:1037A000031DCC2B0130F802031DD72BD82BBB2BCC
:1037B00079080319DC2BDD2BE22BF509F609F50A54
:1037C0000319F60A7608F4007508F30008000030C3
:1037D00083120313A4000030A3000030A2000030C5
:1037E000A10076087504740473040319F82BF92BEF
:1037F000462CA501A50A092C0130A0000310F30DE9
:10380000F40DF50DF60DA00BFE2B0130A0002008E5
:10381000A507F61F0C2C0D2CFC2B0130A00003106B
:10382000A10DA20DA30DA40DA00B0F2C76087A02FA
:10383000031D242C75087902031D242C74087802BA
:10384000031D242C73087702031C272C282C372CEB
:103850007308F7027408031C740FF8027508031C40
:10386000750FF9027608031C760FFA022114013055
:103870000310F60CF50CF40CF30CFF3E031D382C72
:103880000130A502031D452C462C0D2C2408F60002
:103890002308F5002208F4002108F3000800831231
:1038A0000313A501A11F552C562C5D2CA009A109BD
:1038B000A00A0319A10AA501A50AA31F602C612C67
:1038C0006A2CA209A309A20A0319A30A0130FA006B
:1038D0007A08A506A601A701200821040319712C66
:1038E000722CA92CA401A40A802C01300310A00D75
:1038F000A10DFF3E031D762C0130FA007A08A407C3
:10390000A11F832C842C752C01300310A60DA70D4C
:10391000FF3E031D852C21082302031D912C200846
:103920002202031C942C952C9C2C2008A202210816
:10393000031CA303A302261401300310A10CA00C46
:10394000FF3E031D9D2C0130A402031DA82CA92CB1
:10395000842C25080319AD2CAE2CB32CA609A7097D
:10396000A60A0319A70A2708A1002608A000080034
:103970008B13831203130C1FBE2CBF2CD52C9F1E40
:10398000C22CC32CD52C1F1AC62CC72CD52C9F1982
:10399000CA2CCB2CD52C1F19CE2CCF2CD52C1E08E5
:1039A000F0007008EF000C13F22C0C1FD82CD92C4F
:1039B000F22C9F1EDC2CDD2CF22C1F1EE02CE12CA7
:1039C000F22C9F19E42CE52CF22C1F1DE82CE92C7D
:1039D000F22C1E08F000700883160313D200831225
:1039E00003130C139F1EF52CF62C072D1F1AF92C10
:1039F000FA2C072D9F19FD2CFE2C072D1F19012DC8
:103A0000022D072D9F161F169F111F151B2D9F1E80
:103A10000A2D0B2D1B2D1F1E0E2D0F2D1B2D9F193B
:103A2000122D132D1B2D1F1D162D172D1B2D9F160F
:103A30001F129F111F118B1772088A00710E8300CD
:103A4000FE0E7E0E0900F500752D831603130F1769
:103A50008F160F168F110F158F100F14972D8316B9
:103A600003130F178F160F128F110F158F100F14CE
:103A7000972D831603130F178F120F168F110F1523
:103A80008F100F14972D831603130F178F120F1219
:103A90008F110F158F100F14972D831603130F130B
:103AA0008F160F168F110F158F100F14972D831669
:103AB00003130F138F160F128F110F158F100F1482
:103AC000972D831603130F138F120F168F110F15D7
:103AD0008F100F14972D831603130F138F120F12CD
:103AE0008F110F118F140F14972D7508F300F40127
:103AF0007408003A03197D2D972D7308003A0319B5
:103B0000252D013A03192F2D033A0319392D013AB6
:103B10000319432D073A03194D2D013A0319572D67
:103B2000033A0319612D013A03196B2D972D0800F3
:103B3000F500FC2D831203139F121F129F111F11FA
:103B4000302E831203139F121F129F111F15302E48
:103B5000831203139F121F129F151F11302E831201
:103B600003139F121F129F151F15302E831203136C
:103B70009F121F169F111F11302E831203139F12C5
:103B80001F169F111F15302E831203139F121F162D
:103B90009F151F11302E831203139F121F169F159E
:103BA0001F15302E831203139F161F129F111F1112
:103BB000302E831203139F161F129F111F15302ED4
:103BC000831203139F161F129F151F11302E83128D
:103BD00003139F161F129F151F15302E83120313F8
:103BE0009F161F169F111F11302E831203139F164D
:103BF0001F169F111F15302E7508F300F40174086D
:103C0000003A0319042E302E7308003A03199A2D36
:103C1000013A0319A12D033A0319A82D013A0319FA
:103C2000AF2D073A0319B62D013A0319BD2D033AFA
:103C30000319C42D013A0319CB2D0F3A0319D22DC4
:103C4000013A0319D92D033A0319E02D013A03195A
:103C5000E72D073A0319EE2D013A0319F52D302E01
:103C600008000A168A150D210A168A1501300A164F
:103C70008A1523250A168A150A168A15E2220A16BB
:103C80008A150A168A11B4200A168A1508300A16EF
:103C90008A1598250A168A1501300A168A155221A6
:103CA0000A168A150A168A15C0200A168A15831262
:103CB00003139F185C2E5D2E5E2E9F14F601F60AEC
:103CC00001300A168A1536210A168A150A168A152F
:103CD00020210A168A159630F6008030F7000A1661
:103CE0008A159C210A168A150A168A1520210A1699
:103CF0008A15063083160313C6004608F600013005
:103D00000A168A1536210A168A150A168A152021DE
:103D10000A168A159A30F6008030F7000A168A15BE
:103D20009C210A168A150A168A1520210A168A1558
:103D30000B3083160313C6004608F60001300A163E
:103D40008A1536210A168A150A168A1520210A169E
:103D50008A159E30F6008030F7000A168A159C21DD
:103D60000A168A150A168A1520210A168A15433062
:103D700083120313C5007F30C4000030C30000303D
:103D8000C2004030AB00A030AA000030A9000030D3
:103D9000A8006F0883160313C600C701C801C90134
:103DA0004908F6004808F5004708F4004608F30003
:103DB00001300A128A1580200A168A1576088312A5
:103DC0000313AF007508AE007408AD007308AC00B3
:103DD0000A128A153C210A168A15831203132B082E
:103DE000C9002A08C8002908C7002808C6000A1602
:103DF0008A118E210A168A15831203134508831629
:103E00000313D10083120313440883160313D00055
:103E100083120313430883160313CF008312031383
:103E2000420883160313CE00433083120313C500E8
:103E30007F30C4000030C3000030C2004030AB000F
:103E4000A030AA000030A9000030A8008316031398
:103E50005208C600C701C801C9014908F600480850
:103E6000F5004708F4004608F30001300A128A15ED
:103E700080200A168A15760883120313AF0075088E
:103E8000AE007408AD007308AC000A128A153C211C
:103E90000A168A15831203132B08C9002A08C800C2
:103EA0002908C7002808C6000A168A118E210A169A
:103EB0008A1583120313450883160313CD0083125A
:103EC0000313440883160313CC008312031343081F
:103ED00083160313CB0083120313420883160313C4
:103EE000CA00F601F60A02300A168A1536210A16A9
:103EF0008A150A168A1520210A168A15913083160A
:103F00000313C600460883120313EA008316031343
:103F1000510883120313EE00831603135008831213
:103F20000313ED00831603134F0883120313EC00F1
:103F3000831603134E0883120313EB00DD300A12BD
:103F40008A111F200A168A15DD30F6000030F700AE
:103F50000A168A159C210A168A150A168A15202126
:103F60000A168A15063083160313C6004608F600A3
:103F700002300A168A1536210A168A150A168A157B
:103F800020210A168A15913083160313C6004608AD
:103F900083120313EA00831603134D0883120313DD
:103FA000EE00831603134C0883120313ED008316EF
:103FB00003134B0883120313EC00831603134A0800
:103FC00083120313EB00D3300A128A111F200A1642
:103FD0008A15D330F6000030F7000A168A159C21A6
:103FE0000A168A150D3083160313C700FB30C6006E
:103FF000C60BF82FC70BF82F572E0A128A110C2860
:04400E00D4E0FFFFFC
:00000001FF
